:020000040800F2
:10000000E805002001010008911D0008671A00089A
:10001000511D0008510400086D2700080000000071
:10002000000000000000000000000000971E000813
:100030002506000800000000951E0008991E000813
:100040001B0100081B0100081B0100081B01000820
:100050001B0100081B0100081B0100081B01000810
:100060001B0100081B0100081B0100081B01000800
:100070001B0100081B0100081B0100081B010008F0
:100080001B0100081B0100081B0100081B010008E0
:100090001B0100081B0100081B0100081B010008D0
:1000A0001B0100081B0100081B0100081B010008C0
:1000B0001B0100081B0100081B0100081B010008B0
:1000C0001B0100081B0100081B0100081B010008A0
:1000D0001B0100081B0100081B0100086127000824
:1000E0001B0100081B0100081B010008DFF80CD0F1
:1000F00000F0FAF8004800477D2C0008E8050020D1
:100100000648804706480047FEE7FEE7FEE7FEE7B1
:10011000FEE7FEE7FEE7FEE7FEE7FEE7FB1E000860
:10012000ED000008202A04DB203A21FA02F0002129
:10013000704721FA02F3D040C2F1200291400843F7
:1001400019467047D2B201E000F8012B491EFBD2DC
:1001500070470022F6E710B513460A4604461946D2
:10016000FFF7F0FF204610BD10B5002200E0521C42
:10017000835C8C5CA34201D1002BF8D1D8B2E1B2F0
:10018000401A10BD034611F8012B00F8012B002A7C
:10019000F9D118467047000070B50F4D00B92868B6
:1001A000002412E00A4602E09E4203D0521C13785B
:1001B000002BF9D1DAB2224305D02BB124B10021B2
:1001C00000F8011B04E00446401C0678002EE9D12B
:1001D0002860204670BD00002C00002070B5064647
:1001E00002F0E6FA046805460A220021304600F0D3
:1001F00042F82C6070BD2DE9F05F05460020924664
:100200009B4688460646814640241BE028464146D8
:1002100047462246FFF786FF53465A46C01A914189
:1002200010D311461846224600F016F82D1A67EB37
:1002300001084F4622460120002100F00DF817EB7F
:1002400000094E41201EA4F10104DFDC484631467E
:100250002A464346BDE8F09F202A04DB203A00FAF4
:1002600002F1002070479140C2F1200320FA03F30D
:100270001943904070472DE9F04791460F4680465C
:100280000446002614F8015B2DB100F03FF8006829
:10029000405DC007F6D12B2D02D02D2D18D0641E45
:1002A0004A463946204600F035F827B13968A14260
:1002B00001D1C7F8008071054FF002040BD5404210
:1002C000002803DD02F074FA0460A007BDE8F0879F
:1002D00046F48066E4E70028F8DA02F069FA046080
:1002E0006FF00040F2E70000064C074D06E0E068C2
:1002F00040F0010394E8070098471034AC42F6D36D
:10030000FFF7F8FEEC2E00080C2F0008004870479D
:10031000E82E00082DE9F05F824600780027154698
:100320008B460AF10104B946302801D09DB113E093
:1003300014F8010B0127782803D0582801D045B1C3
:100340000AE00DB1102D07D10027102514F8010B7C
:1003500002E0082500E00A250026B0460EE005FB75
:10036000080005FB06F1012701EB10461FFA80F893
:10037000B6F5803F00D3B94614F8010B294600F0CA
:1003800018F80028EBDABBF1000F05D00FB1641E9E
:1003900000E05446CBF80040B9F1000F06D002F05F
:1003A00007FA02210160C81EBDE8F09F48EA064036
:1003B000FAE73A2800D2303820F02002412A01D34F
:1003C000A2F13700884201D34FF0FF3070470000A0
:1003D00010B500F015F90122BDE810409103014865
:1003E00000F0CDBA000C01402DE9F047DFF8549041
:1003F00005464FF4804800224146484600F0BFFAC7
:10040000114F124C0026B85D01F0FEFCA055761C81
:10041000F6B2092EF7D301224146484600F0AFFA62
:1004200060782870E078C04368702079C043A87075
:100430006079E870A0792871E0796871207AA871F4
:10044000BDE8F087000C0140342E00083800002081
:10045000FEE74FF46171884201DD084602E096280C
:1004600000DA9620404201B2084600F001B80000D0
:100470002DE9F0472D4C2E4D0E4607466FF095099D
:100480004FF0000896280CDD01221146204600F0AE
:1004900076FA00220221204600F071FA28684763AC
:1004A00019E04F454FF000024FF00101204608DAF5
:1004B00000F065FA01220221204600F060FA78423D
:1004C00007E000F05CFA00220221204600F057FA13
:1004D000404629684863962E0DDD012210212046F2
:1004E00000F04DFA00222021204600F048FA28684A
:1004F0008663BDE8F0874E454FF000024FF01001D3
:10050000204608DA00F03BFA01222021204600F0C4
:1005100036FA704207E000F032FA0022202120462D
:1005200000F02DFA404629688863E2E700080140A0
:10053000440000204FF46171884201DD084602E06A
:10054000962800DA96200146FFF792BF4FF46171BA
:10055000884201DD084602E0962800DA962001462E
:10056000484200B2FFF784BF4FF46171884201DD59
:10057000084602E0962800DA9620414209B2FFF7C9
:1005800077BF000010B50E4C00220121204600F07C
:10059000F6F900220221204600F0F1F90022102194
:1005A000204600F0ECF900222021204600F0E7F977
:1005B000044900200A6850630968886310BD000080
:1005C00000080140440000204FF46171884201DDC1
:1005D000084602E0962800DA96200146484200B21A
:1005E000FFF746BF4FF46171884201DD084602E023
:1005F000962800DA9620414209B2FFF739BF000081
:100600000648016841F080710160054800214160A1
:10061000016841F00101016070470000FCED00E05D
:10062000001000E07047000009480068406A09496E
:1006300002B20889101A00B2B0F5004F02DA10F5C4
:10064000004F00DC00B20B688A60184408607047F5
:100650008C0000200000002009480068406A094919
:1006600002B28889101A00B2B0F5004F02DA10F514
:10067000004F00DC00B24B68CA6018444860704705
:10068000D4000020000000200648002101604160E5
:1006900005490968496A816004490968496AC16075
:1006A00070470000000000208C000020D4000020D3
:1006B00072B6FEE710B590F821100022022905D08D
:1006C0000421816380F82020012010BD01680B689F
:1006D00023F00E030B6001680B6823F001030B602D
:1006E00090F84030C46B012101FA03F3636080F895
:1006F000211080F82020104610BD000010B590F8A1
:1007000021100024022903D00421816301243DE04B
:1007100001680A6822F00E020A6001680A6822F085
:1007200001020A601A4A0168914201D1012121E0C7
:10073000174A1432914201D110211BE0144A283289
:10074000914201D1891515E0114A3C32914201D103
:1007500089140FE00E4A5032914202D14FF4803199
:1007600008E00B4A6432914202D14FF4801101E05B
:100770004FF08071064A083A5160012180F821103B
:10078000002180F82010416B01B18847204610BD40
:10079000080002402DE9F84FDFF8B8910024A9F1D4
:1007A000040B23460F2709F1040AABF1040EC9E03C
:1007B0000125A5402A40AA427DD1674ED1F804C048
:1007C000ACEB0608B44532D014DCBCF1030F3AD0D0
:1007D00009DCBCF1000F2AD0BCF1010F1CD0BCF128
:1007E000020F31D11DE0BCF1110F17D0BCF1120F77
:1007F0002AD119E0B8F5881F19D006DCB8F5803F7A
:1008000015D0B8F5801F1FD111E0B8F5001F0ED02C
:10081000B8F5041F18D10AE0CB6815E0CB681B1DA2
:1008200012E0CB6808330FE0CB680C330CE08B6828
:100830002BB1012B4FF0080303D0456104E00423E2
:1008400002E0056100E00023FF2A01D8064601E02E
:1008500000F104064FEA840501D9A5F12005D6F878
:10086000008007FA05FC28EA0C0803FA05F548EAB7
:100870000508C6F800804D68ED0062D5374DAE69B9
:1008800046F00106AE61AD6924F0030605F00105EE
:100890000095334D06EB050CDCF80850A607360F23
:1008A00007FA06F825EA0805DFF8B880404503D1C5
:1008B0004FF0000817E044E0DFF8AC80404502D17B
:1008C0004FF001080FE0DFF8A480404502D14FF05F
:1008D000020808E0DFF89880404502D14FF0030895
:1008E00001E04FF0040808FA06F848EA0508CCF8D9
:1008F00008804D68D9F80060ED024D4601D51643D9
:1009000000E096432E604D68DAF80060AD0255466F
:1009100001D5164300E096432E604D68DBF8006079
:10092000AD035D4601D5164300E096432E604D6849
:10093000DEF80060ED03754601D5164300E09643EE
:100940002E60641C0D682A46E5407FF431AFBDE897
:10095000F88F000008040140000011100010024050
:100960000000014000080140000C0140001001405F
:10097000001401408068084000D0012070470AB18F
:10098000016170470904FBE7014880687047000077
:100990001C00002002488168027811448160704781
:1009A0001C000020074810B5016841F010010160EB
:1009B000032000F075F80F2000F006F800F024F88E
:1009C000002010BD0020024070B50D4D04464FF4CC
:1009D0007A712878B1FBF0F00A490968B1FBF0F0B0
:1009E00000F0DCFA48B9102C07D200222146501E34
:1009F00000F036F800206C6070BD012070BD000072
:100A00001C000020280000200C4808B5816941F036
:100A100001018161816901F001010091C16941F029
:100A20008051C161C06900F0805000900448416865
:100A300021F0E06141F00071416008BD001002400A
:100A400000000140002809DB00F01F020121914055
:100A50004009800000F1E020C0F80011704700005C
:100A6000F0B40E4B1B680C46C3F30223C3F1070519
:100A7000042D00D90425191D072901D2002300E007
:100A8000DB1E012606FA05F1491E214099409E40D1
:100A9000761E16403143F0BC01F07ABE0CED00E04A
:100AA000064900F0070208684FF6FF03184040EAC5
:100AB0000220034A10430860704700000CED00E07C
:100AC0000000FA052DE9F0470F46050061D0434EBE
:100AD000306800F00700B84209D2306820F0070003
:100AE00038433060306800F00700B84251D12868C0
:100AF0003B4C810712D5400703D5606840F4E060A5
:100B000060602878000703D5606840F4605060603A
:100B10006068A96820F0F000084360602878C0078A
:100B200028D06868012810D02168022810D08907D1
:100B300000292EDA616821F0030101436160FFF7AB
:100B400023FF804641F288390DE021688903EFE7F1
:100B50008901EDE7FFF718FFA0EB0801494502D92D
:100B60000320BDE8F0876068696800F00C00B0EB16
:100B7000810FEFD1306800F00700B8420BD9306820
:100B800020F0070038433060306800F00700B842BA
:100B900001D00120E5E72878400705D56068E968BD
:100BA00020F4E060084360602878000706D560689C
:100BB000296920F4605040EAC100606000F038F814
:100BC0006168084AC1F30311515CC84006490860D6
:100BD00006480068FFF7F8FE0020C2E70020024048
:100BE000001002404F2E00082800002020000020A6
:100BF0000448054900684968044AC1F30221515C70
:100C0000C840704728000020001002405F2E0008F6
:100C10000448054900684968044AC1F3C221515C8F
:100C2000C840704728000020001002405F2E0008D6
:100C30000E4A51680E4801F00C03042B11D0082B0A
:100C40000FD10C48C1F38343C903C05C0AD5516876
:100C5000084AC1F34041921E515C054A5043B0FB23
:100C6000F1F070470449484370470000001002400B
:100C700000127A003F2E000800093D002DE9F84FD0
:100C8000040070D02078C04DC00749D06868C0F318
:100C90008100012807D06868C0F38100022809D1CB
:100CA0006868C00306D52868800339D560680028C5
:100CB000E7D035E06068B0F5803F0BD010B1B0F5FB
:100CC000A02F11D0286820F480302860286820F4F4
:100CD000802002E0286840F480302860606890B18D
:100CE000FFF752FE06460AE0286840F4802028609C
:100CF000F0E700BFFFF748FE801B642873D8286820
:100D00008003F7D50CE0FFF73FFE064605E000BF85
:100D1000FFF73AFE801B6428F0D828688003F7D4D8
:100D200020789A4E80074FF001094FF0000839D51E
:100D3000686810F00C0F07D06868C0F381000228C3
:100D400009D16868C00306D42868800714D52069D3
:100D5000012808D110E02069B0B1C6F80090FFF773
:100D600013FE074605E00AE1FFF70EFEC01B02284E
:100D7000C4D828688007F7D52868616920F0F80092
:100D800040EAC10028600DE0C6F80080FFF7FCFDD6
:100D9000074604E0FFF7F8FDC01B022823D82868A7
:100DA0008007F7D4207800072CD57948A169D9B1FC
:100DB000C0F80090FFF7E8FD074604E0FFF7E4FD08
:100DC000C01B02280FD8686A8007F7D571484FF416
:100DD000FA510068B0FBF1F0009000BF0098411E8E
:100DE0000091FAD20EE080E0C0F80080FFF7CCFD61
:100DF000074604E0FFF7C8FDC01B022875D8686AE3
:100E00008007F7D42078400760D5E8690027C00044
:100E100008D4E86940F08050E861E869012700F0F3
:100E2000805000905C480168C90513D4016883466E
:100E300041F480710160FFF7A7FD824606E000BF24
:100E4000FFF7A2FDA0EB0A0064284ED8DBF80000F3
:100E5000C005F5D5E06801280AD008B1052813D0EF
:100E6000286A20F001002862286A20F0040002E0CD
:100E7000286A40F001002862E06841F2883B98B19E
:100E8000FFF782FD82460BE0286A40F004002862EA
:100E9000EEE700BFFFF778FDA0EB0A0159455AD8ED
:100EA000286A8007F6D50CE0FFF76EFD824605E064
:100EB000FFF76AFDA0EB0A0159454CD8286A800764
:100EC000F6D41FB1E86920F08050E861E06988B38A
:100ED0006968C1F38101022944D00228C6F8608004
:100EE00004D0FFF751FD044638E034E0FFF74CFD35
:100EF000074604E0FFF748FDC01B02282BD82868EE
:100F00008001F7D4206AB0F5803F05D16868A168F8
:100F100020F4003008436860D4E908010843696898
:100F200021F4741108436860C6F86090FFF72CFD47
:100F3000044606E025E000BFFFF726FD001B02285F
:100F400009D828688001F7D51BE000BFFFF71CFD1A
:100F5000001B022802D90320BDE8F88F2868800111
:100F6000F4D40EE00128F7D06868226A00F48031DA
:100F7000914204D1616A00F47010884201D00120CE
:100F8000EAE70020E8E700000010024000004242CB
:100F900080044242280000200070004010B5401E2E
:100FA000B0F1807F01D3012010BD4FF0E0246061DB
:100FB0000F21601701F0ECFB0020A06107202061E9
:100FC000002010BD10B590F83C20012A22D001224B
:100FD00080F83C20CA688C6822F4407222434C6836
:100FE00022F4806222430C6822F4006222430C69DE
:100FF00022F4805222434C6922F400522243C969F0
:10100000002322F480420A4301684A6480F83C309D
:10101000002010BD022010BD70B590F83C20012AC0
:1010200026D0012480F83C40022280F83D2003684D
:101030005A689D6822F070060A6832435A600D4B68
:1010400002689A4208D0B2F1804F05D00A4B9A420A
:1010500002D00A4B9A4204D1496825F08003194313
:10106000916080F83D40002180F83C10084670BD3A
:10107000022070BD002C0140000400400008004028
:1010800010B5040003D094F83D0010B107E0012032
:1010900010BD002084F83C00204600F01FF802201C
:1010A00084F83D00211D206800F028FF012084F80D
:1010B000460084F83E0084F83F0084F8400084F83D
:1010C000410084F8420084F8430084F8440084F826
:1010D000450084F83D00002010BD000008B5006800
:1010E0000649884208D10648816941F4006181615E
:1010F000806900F40060009008BD0000002C0140F1
:101100000010024070B5044690F83C00002501280C
:1011100017D0012684F83C60022084F83D00206846
:10112000826822F0770222F47F42826008685028A9
:1011300038D00DDC20284FD005DC90B3102811D119
:101140004AE0022070BD302846D040280AD13BE05A
:1011500060282FD070280DD0B0F5805F03D0B0F597
:10116000005F12D0012584F83D60002084F83C0027
:10117000284670BDCB68D1E90121206800F007FF47
:101180002068816841F0770109E0CB68D1E901214D
:10119000206800F0FCFE2068816841F48041816095
:1011A000E1E719E0CA684968206800F0A5FF50210E
:1011B000206806E0CA684968206800F0AEFF602138
:1011C000206800F0EEFECEE7CA684968206800F0AB
:1011D00093FF40212068F4E7226801461046F0E7BB
:1011E0002DE9F0410D46040003D094F83D0018B1FC
:1011F00008E00120BDE8F081002084F83C00204692
:1012000000F040F8022084F83D002068816844F234
:10121000070291438160211D206800F06FFE226863
:1012200090689169166A2B68AF69034340F20330F6
:10123000814341EA0721A868EF6908434FF6FC4162
:101240008843E96840EA0720014328692F6A0001C2
:1012500040EA0730084369686D6926F0220646EACD
:101260000515294393602268906154F8460B01628A
:10127000012004F81F09E0752076E0762077A0753C
:101280000020B7E7F0B585B00026009601960296DB
:10129000039601682D4801252D4F2E4CB1F1804F4A
:1012A00023D02D4A91421ED1C16941F00201C16192
:1012B000C16901F002010491816941F00801816175
:1012C0008069694600F00800049030200090029583
:1012D0003846FFF75FFA606820F4406040F0E06055
:1012E00040F40060606005B0F0BDC16941F00101EB
:1012F000C161C16901F001010491816941F00401FA
:101300008161816901F004010491816941F0080162
:1013100081618069694600F0080004904FF4004044
:10132000009002950D48FFF735FA0820CDE9000638
:10133000694602953846FFF72DFA606820F4407040
:1013400040F0E06040F48070CCE700000010024004
:10135000000C014000000140000400400008014072
:1013600070B590F83E60044690F83F5090F84230D7
:1013700090F84320022021B104290ED0012E1BD168
:1013800014E0012E18D1012B16D184F83E0084F808
:10139000420001220021206820E0012D0CD1012A09
:1013A0000AD184F83F0084F8430014E0012D03D1F2
:1013B000012B01D1012A01D0012070BD84F83E002B
:1013C00084F83F0084F8420084F8430001220021A1
:1013D000206800F0CFFD01220421206800F0CAFD42
:1013E0002068016841F001010160002070BD00002B
:1013F00000B585B000210091019102910391006830
:101400000B49884212D10B48816941F00401816186
:101410008069694600F0040004904FF44070009029
:101420000220019003900448FFF7B4F905B000BD15
:10143000002C0140001002400008014070B5044635
:1014400090F83C0000260D4601280FD0012084F8BA
:101450003C006AB1042A1DD0082A2FD00C2A3FD0A4
:101460000126002084F83C00304670BD022070BD8B
:10147000206800F09FFD2068816941F008018161CA
:101480002068816921F004018161206881692A69ED
:10149000114311E0206800F0B5FD2068816941F436
:1014A000006181612068816921F480618161206827
:1014B00081692A6941EA02218161D2E7206800F04E
:1014C000CDFD2068C16941F00801C1612068C16992
:1014D00021F00401C1612068C1692A69114311E04A
:1014E000206800F0E7FD2068C16941F40061C16136
:1014F0002068C16921F48061C1612068C1692A69DD
:1015000041EA0221C161ACE710B5040003D094F8B0
:101510003D0010B107E0012010BD002084F83C0020
:10152000204600F01EF8022084F83D00211D2068AE
:1015300000F0E4FC012084F8460084F83E0084F8C2
:101540003F0084F8400084F8410084F8420084F8A9
:10155000430084F8440084F8450084F83D000020EE
:1015600010BD704710B50446022249B104290ED0BF
:10157000082913D094F84100012816D0012010BD8D
:1015800094F83E000128F9D184F83E200FE094F849
:101590003F000128F2D184F83F2008E094F8400091
:1015A0000128EBD184F8402001E084F84120012299
:1015B000206800F0DFFC0F492068884203D1426CAC
:1015C00042F4004242642068884208D0B0F1804F63
:1015D00005D00949884202D00849884204D181686F
:1015E00001F00701062903D0016841F00101016003
:1015F000002010BD002C0140000400400008004005
:1016000070477047F8B5016804460868CA684B69B6
:1016100010F00F0F4FF0000559D003F0010602F44F
:101620009077374365D0C10705D0D10503D5616CEC
:1016300041F001016164410705D5D90703D0616C10
:1016400041F002016164810705D5D90703D0616CBF
:1016500041F004016164010707D502F02001314324
:1016600003D0616C41F008016164616C00293AD0DB
:10167000800604D5900602D5204600F035FF20688C
:101680004069616CC0F38010090700D460B3204644
:1016900000F05DFD20684069400621D520681430C7
:1016A00050E8001F21F0400140E80012002AF5D167
:1016B000E06BA8B16D494163E06BFFF71FF80028AC
:1016C00011D0E06B416B01B0BDE8F04008478306E4
:1016D0000FD593060DD52046BDE8F84000F004BFB5
:1016E0002046FFF78EFFF8BD2046FFF78AFF6564AE
:1016F000F8BD266B2023012E7CD1C6067AD5D606EE
:1017000078D508684868009048694FF0020640069E
:1017100040D5E16B086840680004000CE8D0A28D59
:101720008242E5D9E085886920282DD020680C30D8
:1017300050E8001F21F4807140E80012002AF5D122
:101740002068143050E8001F21F0010140E8001229
:10175000002AF5D12068143050E8001F21F0400124
:1017600040E80012002AF5D184F842302563206851
:101770000C3050E8001F21F0100140E80012002A50
:10178000F5D1E06BFEF796FF6663A08DE18D401A00
:1017900081B22AE0A08DE18D401A81B2E08D00284F
:1017A000A6D00029A4D022680C3252E8000F20F401
:1017B000907042E80007002FF5D12068143050E8FF
:1017C000002F22F0010240E80027002FF5D184F815
:1017D0004230256320680C3050E8002F22F01002C0
:1017E00040E80023002BF5D166632046FFF708FF91
:1017F000F8BDFFE705062BD5150629D594F841005D
:101800002128F5D1A068B0F5805F01D12069B0B181
:10181000206A411C2162216800784860E08C401EEB
:101820000004000CE084E3D12068C16821F080014D
:10183000C1602068C16841F04001C160D8E7206AFA
:101840000088C0F308004860206A801C2062E5E739
:101850004006CDD55006CBD5CA68204622F04002BE
:10186000CA6084F8413000F0FDF8C1E73F2100086C
:1018700070B5040004D094F84100002510B106E0D2
:10188000012070BD84F84050204600F023F8242049
:1018900084F841002068C16821F40051C1602046ED
:1018A00000F0AEFE2068016921F4904101612068DA
:1018B000416921F02A0141612068C16841F4005169
:1018C000C1606564202084F8410084F842006563AB
:1018D000002070BD30B585B00024009401940294BE
:1018E00003940068184988422CD11848C16941F412
:1018F0008021C161C16901F480210491816941F0B5
:10190000080181618069124D00F0080004904FF4D5
:1019100080600090022001900320039069462846D1
:10192000FEF738FFE814CDE9000469462846029422
:10193000FEF730FF002211462720FFF791F82720FD
:10194000FFF780F805B030BD0048004000100240AD
:10195000000C014090F84230202B01D0022070474B
:1019600021B11AB10023036300F0A6BE0120704725
:1019700070B50068104988421CD1104C0025104AEF
:1019800021780A2908D00D2906D060887F2808D23E
:101990001154401C608005E0608818B1155400F0B7
:1019A00007FC6580BDE8704005480122034980308E
:1019B000FFF7D0BF70BD00000048004018000020B5
:1019C0001C0100202DE9F843044690F84100984698
:1019D00016460D46202802D00220BDE8F88385B1C6
:1019E0007EB100206064212084F84100FEF7CCFF26
:1019F000A6848146E684A0682027B0F5805F02D0E7
:101A000003E00120E9E7206910B12E4600250EE031
:101A100000260CE08021204600F069FEA8B9C6B17E
:101A200016F8010B21684860E08C401EE084E08CD1
:101A30004B464FF00002CDF800800028EAD14FF06D
:101A40004001204600F053FE40B184F8417003206D
:101A5000C3E735F8020BC0F30800E3E784F84170F0
:101A60000020BAE77047FEE72DE9F04186B0002478
:101A700025480094019402940394816941F0200167
:101A80008161816901F020010491816941F00401C3
:101A90008161816901F004010491816941F00801CB
:101AA00081618069194F00F0080004900022332101
:101AB0003846FEF764FFDFF858804FF46046012295
:101AC00031464046FEF75BFF33200125CDE9000596
:101AD0000220CDE9024069463846FEF75BFE280346
:101AE000CDE90004694640460294FEF753FE032008
:101AF000CDE90240CDE9006569464046FEF74AFE61
:101B000006B0BDE8F081000000100240000801406E
:101B1000000C014010B596B000240F94109411945D
:101B2000129413941C2168461494FEF712FB202192
:101B300007A8FEF70EFB2D482B4901604721C0E99D
:101B4000011440F2E731C0E903148021C0E90541E6
:101B5000FFF796FA08B1FEF7ABFD4FF480500F90F7
:101B60000FA92248FFF7CEFA08B1FEF7A1FD1F48E2
:101B7000FFF7CAFC08B1FEF79BFD139413A91B489D
:101B80001494FFF749FA08B1FEF792FD6020CDE901
:101B900000040294039404940594002269461348B7
:101BA0000694FFF74BFC08B1FEF782FD042269465C
:101BB0000E48FFF743FC08B1FEF77AFD079408943E
:101BC00009944FF400500A94CDE90B4007A9074847
:101BD0000E94FFF7F7F908B1FEF76AFD0348FFF727
:101BE00007FC16B010BD0000002C0140440000208E
:101BF00010B58CB024216846FEF7ABFA00241648D5
:101C000009944FF080410A94C0E900144FF6FF7127
:101C1000C0E902418021046181610320CDE9000413
:101C200001200621CDE902040491CDE90540079485
:101C3000694609480894FFF7D3FA08B1FEF738FD62
:101C4000099409A904480A94FFF7E6F9002801D08D
:101C5000FEF72EFD0CB010BD8C00002010B58CB02E
:101C600024216846FEF775FA00241748099415499F
:101C70000A94C0E900144FF6FF71C0E902418021C7
:101C8000046181610320CDE9000401200621CDE932
:101C900002040491CDE90540079469460A48089476
:101CA000FFF79EFA08B1FEF703FD099409A906485B
:101CB0000A94FFF7B1F9002801D0FEF7F9FC0CB047
:101CC00010BD000000040040D40000200C4810B5F6
:101CD0000A4901604FF4E1314160002181600C222A
:101CE000C160C0E904128161C161FFF7C1FD002834
:101CF00003D0BDE81040FEF7DBBC10BD004800403B
:101D00009C0100204FF461728E280CD911467F3857
:101D10004843C11700EB5160C111914201DD1046EB
:101D200070470846704770280ED2C0F17F004FF40C
:101D300061714843C11700EB5160C011904201DD51
:101D40000248704740427047002070477CFCFFFF0C
:101D5000FEE7000010B5FEF715FC00210948FFF76B
:101D600001FC04210748FFF7FDFB3C210648FFF773
:101D7000F7FA3C210548FFF7F3FABDE81040FEF7FB
:101D800083BC0000440000208C000020D400002010
:101D9000FEE710B5044653074FF4C87003D5BDE8FD
:101DA0001040FEF711BC920703D5BDE81040FEF7C6
:101DB00019BC0846FFF7A6FF404203B22046FFF7D2
:101DC000A1FF53EA000103D0002B05DB194604E014
:101DD000BDE81040FEF7D6BB5942021E00DA42426F
:101DE000914205DDBDE8104018461946FEF740BB9C
:101DF000002803DDBDE81040FEF7B6BB4042BDE859
:101E0000104000B2FEF7A2BB2DE9FC4106460020BF
:101E10008DF8040001208DF8000047031C4CC50319
:101E20004FF480582CE000BF9DF80000304201D0F4
:101E3000012200E0002239462046FEF7A0FD0022E4
:101E400029462046FEF79BFD102000F0F7FE414694
:101E50002046FEF78FFD30B19DF804009DF800107C
:101E600008438DF80400012229462046FEF787FD2D
:101E7000102000F0E3FE9DF8000040008DF8000007
:101E80009DF800000028CFD19DF80400BDE8FC813A
:101E9000000C014070477047FEF77CBD30B58FB035
:101EA00028216846FEF755F914210AA8FEF751F9D2
:101EB00001210804CDE900100024029402250491B8
:101EC000CDE907504FF4E01009906846FEF7D6FEC2
:101ED00008B172B6FEE70F20CDE90A054FF4806025
:101EE000CDE90C4002210AA80E94FEF7EBFD002874
:101EF00001D072B6FEE70FB030BD7047F0B5026892
:101F0000194B1A4C1A4D4FF08047984205D0B842F1
:101F100003D0A04201D0A84203D122F070064A6843
:101F20003243984205D0B84203D0A04201D0A84223
:101F300003D122F44074CA6822434C6922F0800223
:101F4000224302608A68C2620A688262984201D1B2
:101F500009690163012141610169C90703D0016970
:101F600021F001010161F0BD002C0140000400409E
:101F70000008004010B501F01F030121046A9940D8
:101F80008C430462016A9A401143016210BD10B58E
:101F9000846842EA032224F47F440A432243826095
:101FA00010BD826822F070020A4342F0070181608E
:101FB0007047000030B5036A026A22F00102026233
:101FC0004268846924F073050C682C4323F00205F1
:101FD0008B682B430A4DA8420BD123F00805CB6830
:101FE00022F440722B434D6923F0040315438A69A0
:101FF0002A434260846149684163036230BD000046
:10200000002C014030B5026A036A23F0100303621A
:10201000436884690D6824F4E64444EA05248D6825
:1020200022F0200242EA05120B4DA8420ED1CD68E3
:1020300022F0800242EA05124D6923F4406343EA2C
:1020400085038D6922F0400243EA85034360846181
:1020500049688163026230BD002C014030B5036ADB
:10206000026A22F4807202624268C46923F4007337
:1020700024F073050C682C438D6843EA05230C4D4E
:10208000A8420ED1CD6823F4006343EA05234D69CD
:1020900022F4405242EA05128D6923F4806342EA39
:1020A00005124260C4614968C163036230BD00002B
:1020B000002C014030B5046A026A22F480520262A8
:1020C0004268C3690D6823F4E64343EA05238D683B
:1020D00024F4005444EA0534064DA84204D14D6965
:1020E00022F4804242EA85124260C3614968016479
:1020F000046230BD002C014010B5036A046A24F06C
:1021000001040462846924F0F00444EA021423F018
:102110000A020A438461026210BD10B5036A046AB0
:1021200024F010040462846923F0A00324F47044B2
:1021300044EA023243EA01118261016210BD10B526
:10214000406A0021C185C184FFF75BFA10BD0168B8
:102150000C3151E8002F22F4907241E80023002B4B
:10216000F5D10168143151E8002F22F0010241E855
:102170000023002BF5D1016B012909D101680C3135
:1021800051E8002F22F0100241E80023002BF5D186
:10219000202180F84210002101637047012202498A
:1021A0000248FFF7D7BB0000180000209C01002068
:1021B00030B5A1B052496846FDF7E4FF51A1684629
:1021C000FDF7EAFF18B150A1FDF7CEFF08B14FA00F
:1021D00079E056A10020FDF7DFFF04001DD054A1D7
:1021E000FDF7C2FFD8B154A12046FDF7BDFF00287E
:1021F0005FD053A12046FDF7B7FF00285DD052A164
:102200002046FDF7B1FF00285AD052A12046FDF725
:10221000ABFF00285AD051A055E057A053E043A18E
:102220000020FDF7B9FF054640A10020FDF7B4FFEF
:102230003DB130B1FDF7D2FF04B2962C03DA9624FB
:1022400006E054A03FE04FF46170844200DD044694
:1022500058A12846FDF788FF80B157A12846FDF711
:1022600083FF88B155A12846FDF77EFF90B154A1A8
:102270002846FDF779FF98B152A024E02046FEF7EA
:1022800059F9214656A010E02046FEF7E2F8214613
:102290005AA00AE02046FEF797F921465EA004E026
:1022A0002046FEF79FF9214662A000F061FA21B0B6
:1022B00030BDFEF767F966A005E000F077F9F6E7B4
:1022C000FEF7E2F967A000F053FAF0E717A100204B
:1022D000FDF762FF48B1FDF781FF10F0FF0166488E
:1022E00005D0012906D065A0EDE76EA0EBE70170EF
:1022F00073A201E0017073A274A000F039FAD6E76E
:102300001C0100203A000000434D44004552524F4A
:10231000523A20496E76616C696420636F6D6D611D
:102320006E6420666F726D61740D0A002C000000EF
:102330004D4F56450000000053544F500000000020
:10234000535441545553000052455345545F454E34
:10235000430000004D4F4445000000004552524FDD
:10236000523A20556E6B6E6F776E20636F6D6D61A4
:102370006E640D0A000000004552524F523A204E42
:102380006F20636F6D6D616E6420747970650D0AE6
:10239000000000004552524F523A20496E76616C5F
:1023A0006964204D4F564520636F6D6D616E640DFD
:1023B0000A00000046000000420000004C0000003F
:1023C000520000004552524F523A20496E76616CDD
:1023D000696420646972656374696F6E0D0A000038
:1023E0004F4B3A204D6F76696E6720666F7277614A
:1023F00072642061742025640D0A00004F4B3A205E
:102400004D6F76696E67206261636B7761726420DD
:1024100061742025640D0A004F4B3A205475726E8A
:10242000696E67206C6566742061742025640D0AEE
:10243000000000004F4B3A205475726E696E6720A1
:1024400072696768742061742025640D0A000000B9
:102450004F4B3A204361722073746F707065640D46
:102460000A0000004F4B3A20456E636F646572208E
:1024700072657365740D0A00100000204552524FBA
:10248000523A20496E76616C6964206D6F646520F4
:1024900028303D5053322C20313D55415254290DA6
:1024A0000A0000004552524F523A204E6F206D6F85
:1024B0006465207370656369666965640D0A000070
:1024C0005053320055415254000000004F4B3A2007
:1024D0004D6F64652073657420746F202564202817
:1024E0002573290D0A00000008B590F84210222932
:1024F00001D0022008BD82684FF480539A4201D176
:10250000016921B1816A9A421BD04AB10AE002688E
:10251000816A5268C2F308020A80816A891C08E055
:10252000026972B10268526802F07F020A70816A21
:10253000491C8162C18D491E0904090CC18503D063
:102540001BE002685268F1E70168CA6822F02002C5
:10255000CA600168CA6822F48072CA6001684A6968
:1025600022F001024A61202180F8421000214163DB
:10257000026B012A03D0FFF7FBF9002008BD0163BD
:1025800001680C3151E8002F22F0100241E80023CD
:10259000002BF5D101680A68D20602D50A6849689D
:1025A0000091818DFFF72CF8E7E7000010B5FEF7EA
:1025B0003BF80446FEF750F80246044821460378EB
:1025C000BDE8104002A000F0D3B8000010000020C9
:1025D0005354415455533A204C656674456E633DDF
:1025E000256C642C205269676874456E633D256CC8
:1025F000642C204D6F64653D25640D0A00000000C9
:1026000070B5044600680169E26821F44051114345
:1026100001612169A0680843616908432168CA68AB
:1026200041F20C639A430243CA6020684169A2697F
:1026300021F44071114341611E492068884202D152
:10264000FEF7E6FA01E0FEF7D3FA00EBC00101EB7A
:102650000012606864218000B2FBF0F3B3FBF1F379
:102660006FF018067343B2FBF0F5B2FBF0F605EB22
:102670008305322303EB0515B5FBF1F5B6FBF1F647
:1026800005F0F00505EB0615B2FBF0F6B2FBF0F035
:10269000B0FBF1F06FF01802504306EB800003EB43
:1026A0000010B0FBF1F0216800F00F0028448860B2
:1026B00070BD00000038014081628285C285002122
:1026C0004164222180F84210016921B10168CA6881
:1026D00042F48072CA6001684A6942F001024A61AC
:1026E0000068C16841F02001C160002070472DE9F9
:1026F000F843984617460D460446089E24E0701C91
:1027000022D0FEF741F9A0EB0800B0421AD8CEB1B2
:102710002068C168490717D5802D15D0402D13D0EA
:102720000168C94309070FD401680025406800907B
:102730002046FFF70CFD0820606484F8405001201B
:10274000BDE8F8830320FBE72068006835EA000055
:1027500004D00020B842D2D00020F1E70120F9E7F0
:102760000148FEF74FBF00009C010020FEE700007B
:102770000FB4054B10B503A9044A029800F02CF8D9
:1027800010BC5DF814FB0000652C00083000002030
:102790000907090E002804DB00F1E02080F800148E
:1027A000704700F00F0000F1E02080F8141D704722
:1027B000004870473400002002E008C8121F08C11A
:1027C000002AFAD170477047002001E001C1121FB2
:1027D000002AFBD1704700002DE9FF4F8DB00F4656
:1027E0000546002606E025280BD0DDE90F129047AC
:1027F0006D1C761C28780028F5D111B03046BDE854
:10280000F08F0024A246A1460122EC4900E00443D7
:1028100015F8013F203B02FA03F00842F7D128786F
:102820002A2810D06FF02F022878A0F13001092952
:1028300014D80AEB8A0102EB410144F0020400EBD8
:10284000010A6D1CF0E701CF5FEA000A03D544F4EA
:102850000054CAF1000A44F002046D1C28782E28A6
:1028600017D115F8010F44F004042A280ED06FF098
:102870002F022878A0F1300109290AD809EB890133
:1028800002EB410100EB01096D1CF2E757F8049BD4
:102890006D1C28786C280FD006DC4C2817D06828CF
:1028A0000DD06A2814D104E0742810D07A280FD1F2
:1028B0000DE044F400140AE044F4801401E044F410
:1028C00040146978814202D104F580146D1C6D1C9E
:1028D0002A786E2A1FD00CDC632A31D004DC002A4F
:1028E0008BD0582A11D1A3E0642A68D0692A0CD170
:1028F00065E0732A2ED004DC6F2A73D0702A04D1CD
:102900009BE0752A6FD0782A6ED01046DDE90F1251
:102910009047761C50E1C4F30250022806D00328E9
:1029200009D0042801CF09D0066045E101CFF11795
:10293000C0E9006140E101CF06803DE106703BE166
:1029400017F8040B8DF8000000208DF80100EB460D
:10295000012003E057F804BB4FF0FF3061074FF050
:10296000000102D40DE008F10101884649450FDA63
:102970008045F8DB1BF808100029F4D108E008F1C5
:10298000010188468142FADB1BF808100029F6D1C4
:10299000DDE90F23AAEB08008146214600F036F955
:1029A000304400EB080604E0DDE90F121BF8010BD0
:1029B0009047B8F10108F7D221464846F7E00A21CE
:1029C000C4F302534FF0000B0891022B04D001CF47
:1029D000C117032B09D00AE0FF1D27F00707F7E80E
:1029E000020108E032E01FE020E000B2C117042B32
:1029F00001D140B2C117031E71F1000307DA4FF095
:102A0000000CD0EB0C006CEB01012D2302E0230540
:102A100004D52B238DF82430012303E0E30701D0F4
:102A20002023F7E7984658E00A2110E010210EE035
:102A300010204FF0000B08900CE010214FF0000B1D
:102A400044F004044FF00809089103E008214FF016
:102A5000000B0891C4F30253022B04D001CF0021D4
:102A6000032B06D006E0FF1D27F00707F7E8020159
:102A700003E080B2042B00D1C0B24FF0000823075E
:102A80002BD5702A07D0DDF820C08CF0100C5CEA42
:102A90000B0C05D00EE040238DF82430012308E014
:102AA00050EA010306D030238DF824308DF825201C
:102AB00002239846DDF820C08CF0080C5CEA0B0C71
:102AC0000BD150EA010301D1630706D530238DF8FD
:102AD00024304FF00108A9F10109582A04D038A286
:102AE0000B9208AA0A920BE03AA2F9E75B46089A11
:102AF000FDF781FB0B9B9B5C0A9A521E0A92137096
:102B000050EA0102F2D10A98ADEB000000F1200B6F
:102B1000600702D524F4803401E04FF00109D94563
:102B200002DDA9EB0B0000E0002000EB0B014144AB
:102B30000890AAEB010AE00306D4DDE90F23214641
:102B4000504600F063F806444FF0000908E009A978
:102B500011F80900DDE90F12904709F10109761C0F
:102B6000C145F4DBE0030CD5DDE90F2321465046D7
:102B700000F04CF8064404E0DDE90F1230209047E5
:102B8000761C0899481E08900029F5DC08E00A9890
:102B90000A990078491C0A91DDE90F129047761CCA
:102BA000BBF10001ABF1010BF1DC21465046DDE940
:102BB0000F2300F019F806446D1C1BE609280100DC
:102BC00030313233343536373839616263646566A3
:102BD0000000000030313233343536373839414265
:102BE00043444546000000002DE9F041044600251D
:102BF0001E461746880404D405E039462020B04715
:102C00006D1C641EF9D52846BDE8F0812DE9F04120
:102C1000044600251E469046C80301D5302700E033
:102C20002027880404D505E041463846B0476D1C8E
:102C3000641EF9D52846BDE8F08100000649074A20
:102C40000968B1FBF2F141430548426843689B1AA9
:102C50008B42FBD3704700002800002040420F0049
:102C6000001000E013B54FF6FF73012269460248D9
:102C7000FEF7A8FE00981CBD9C010020FDF792FE07
:102C8000FFF70CF9FEF7F0FEFEF744FFFEF7B0FF8A
:102C9000FEF7E4FFFFF71AF8FDF79AFBFFF75AF883
:102CA000FFF77CFA29A0FFF763FD32A0FFF760FD74
:102CB00039A0FFF75DFD414F387800282ED040A1A4
:102CC00041A0FFF755FD43A0FFF752FDDFF8EC8070
:102CD00000252E4608F10108FDF756FE0446387817
:102CE0000028F9D1A01B1428F6D334482646401CEE
:102CF000FDF77AFB98F800104046732910D041295F
:102D00000ED0FDF73FFC601BB0F5FA6FE4D325460B
:102D100098F8001032A0FFF72BFDDDE73CA1CFE7CC
:102D20004278817998F80500FFF733F8601BB0F519
:102D3000FA7FD1D3254698F8003098F8062098F805
:102D4000051034A0FFF714FDC6E700000D0A3D3D55
:102D50003D3D3D3D3D3D3D3D3D3D3D3D3D3D3D3DA3
:102D60003D3D3D3D3D3D3D3D3D3D3D3D3D3D3D0DC3
:102D70000A000000202050533220487962726964B2
:102D80002043617220436F6E74726F6C20537973AD
:102D900074656D20200D0A003D3D3D3D3D3D3D3DAE
:102DA0003D3D3D3D3D3D3D3D3D3D3D3D3D3D3D3D53
:102DB0003D3D3D3D3D3D3D3D3D0D0A0010000020A7
:102DC00055415254000000004D6F64653A20257350
:102DD0000D0A00005265616479210D0A0D0A000098
:102DE0005B5053325D204E6F20636F6E74726F6C58
:102DF0006C657220646574656374656420284D6F2A
:102E000064653A307825303258290D0A00000000F8
:102E1000505332005B5053325D204C4A28253364B6
:102E20002C25336429204D6F64653A307825303283
:102E3000580D0A00014200000000000000010202DB
:102E4000030405060708090A0B0C0D0E0F101000ED
:102E5000000000000000000102030406070809004A
:102E60000000000102030400404040404040404058
:102E7000404141414141404040404040404040404D
:102E8000404040404040404005020202020202022F
:102E90000202020202020202202020202020202022
:102EA0002020020202020202029090909090901064
:102EB0001010101010101010101010101010101012
:102EC000101010020202020202888888888888088E
:102ED0000808080808080808080808080808080872
:102EE0000808080202020240682E00080C2F0008A1
:102EF0000000002038000000B8270008442F000818
:102F000038000020B0050000C827000800000000BD
:102F100000000000000000000000000000000000B1
:102F20000000000000000000010000001000000090
:102F30000000000000127A00000000000000000005
:042F4000000000008D
:04000005080000ED02
:00000001FF
