:020000040800F2
:1000000068060020010100089D2600080321000861
:100010004D260008390B0008BD3400080000000020
:10002000000000000000000000000000D7280008C9
:10003000550C000800000000D5280008F52A00082B
:100040001B0100081B0100081B0100081B01000820
:100050001B0100081B0100081B0100081B01000810
:100060001B0100081B0100081B0100081B01000800
:100070001B0100081B0100081B0100081B010008F0
:100080001B0100081B0100081B0100081B010008E0
:100090001B0100081B0100081B0100081B010008D0
:1000A0001B0100081B0100081B0100081B010008C0
:1000B0001B0100081B0100081B0100081B010008B0
:1000C0001B0100081B0100081B0100081B010008A0
:1000D0001B0100081B0100081B010008B1340008C7
:1000E0001B0100081B0100081B010008DFF80CD0F1
:1000F00000F06EFC004800471D3E00086806002026
:100100000648804706480047FEE7FEE7FEE7FEE7B1
:10011000FEE7FEE7FEE7FEE7FEE7FEE7572B0008F7
:10012000ED000008202A04DB203A21FA02F0002129
:10013000704721FA02F3D040C2F1200291400843F7
:1001400019467047D2B201E000F8012B491EFBD2DC
:1001500070470022F6E710B513460A4604461946D2
:10016000FFF7F0FF204610BD10B5002200E0521C42
:10017000835C8C5CA34201D1002BF8D1D8B2E1B2F0
:10018000401A10BD034611F8012B00F8012B002A7C
:10019000F9D118467047000070B50F4D00B92868B6
:1001A000002412E00A4602E09E4203D0521C13785B
:1001B000002BF9D1DAB2224305D02BB124B10021B2
:1001C00000F8011B04E00446401C0678002EE9D12B
:1001D0002860204670BD00005000002070B5064623
:1001E00003F08EF9046805460A220021304600F02B
:1001F00083FA2C6070BDF0B480EA0102D40F420093
:10020000B2EB410F02D20246084611464A0042D0E4
:10021000C30DDDB2C1F3C752AD1A202D35DAC1F3DB
:10022000160141F4000204B15242C5F1200602FA5F
:1002300006F12A411044B3EBD05F23D0C4B1012DA5
:10024000A0EBC35009DCF0BC4FF0004202EAC352FD
:10025000DBB200F5000000F090BA400000F18070C1
:1002600000EBC350A0F1807040EAD170490009E072
:10027000490841EAC071A0EBC35000F500004008F6
:1002800000EBC350F0BC00F06FBA6142012202EBF8
:100290004101001BF6E7F0BC704781F00041AAE77E
:1002A00080F00040A7E780EA010210B502F00043A9
:1002B000400022D04A001FD0010E01EB1261C0F3B2
:1002C0005600C2F3560240F4000042F40002A0FBC4
:1002D000022000047F39140400D0401C50EA124070
:1002E00001D44000491EC2B20C0604EBD010401CE1
:1002F0004008802A02D003E0002010BD20F0010059
:10030000002900DA0020184310BD30B480EA010251
:1003100002F0004530F0004221F0004013D090B1CF
:10032000C30DD40DC2F31601C0F31600E41A41F454
:10033000000140F400027D34914201D3641C00E0CE
:100340004900002C02DA30BC002070474FF4000056
:100350000023914201D3891A034340084FEA410127
:10036000F7D151B1914202D14FF0004105E002D2E4
:100370004FF0010101E06FF0010103EBC45028448C
:1003800030BC00F0F1B9420005D0C0F3C752524270
:10039000914201DC0020704700EBC15070472DE90D
:1003A000FE4F804681EA0300C00F0C46009021F00A
:1003B000004123F00045B8EB0200A94105D24046B8
:1003C000214690461C460B46024623F0004010434F
:1003D00047D0270DC7F30A00C3F30A510290401A11
:1003E000019040286BDAC3F3130040F4801B00989F
:1003F000924620B10023D2EB030A63EB0B0B01986A
:100400005946C0F14002504600F055F906460D46E7
:1004100050465946019A00F05DF910EB0800614121
:10042000002487EA115284EAE7731A4340D0009A05
:1004300062B3019A012A4FEA075215DC001B61EBF7
:1004400002014FF0004202EA0752CDE90042001CCF
:1004500041F5801132462B4600F0CCF903B0BDE8DF
:10046000F08F40462146F9E7001B61EB0201001CBA
:1004700041F5801300185B412018A2F5001747EBE7
:10048000030140EAD570B6196D4111E06D084FEADD
:10049000360645EAC0754FEA0752001B61EB0201C0
:1004A000001C41F5801149084FEA30000019514104
:1004B00032462B4603B0BDE8F04F00F08CB90098EF
:1004C000012240000023D0EB020263EBE0730098AE
:1004D00021464FEAE074B8EB000061EB0401E9E764
:1004E00083F000435BE781F0004158E72DE9FE4FC0
:1004F00081EA030404F0004421F0004100944FF02D
:10050000000B23F0004350EA01045ED052EA0304DA
:100510005BD0C3F30A54C1F30A552C44A4F2F3345C
:100520000194A0FB0254C1F3130141F48011C3F301
:10053000130343F4801301FB024400FB034E840ABF
:10054000970A44EA815447EA8357A4FB0768029557
:100550008D0A05FB07854FEA932C04FB0C542705F5
:10056000029D4FEA065847EA1637B5EB08056EEBD1
:10057000070C870E920E47EA811742EA8312A7FB07
:100580000201B6EB0B0164EB00042B0D43EA0C33C4
:100590005E1844EB1C50DA465146E7FB0201C5F3F6
:1005A00013044FEA0B3343EA14534FEA0432019C1D
:1005B00043EA0603A4F10C040294009CCDE900B4C4
:1005C00000F018F903B0BDE8F08F00200146F9E70C
:1005D000C10F80EAE0700844CA079623002100F0AA
:1005E000CCB896230022114600F0C7B800F00042B4
:1005F00030F000400AD0C10D01F56071C0F3160063
:1006000042EA0151C20840071143704700200146E9
:1006100070470000002801DBC0F10040002901DB29
:10062000C1F100418142704730B50B4601460020C0
:100630002022012409E021FA02F59D4205D303FAA4
:1006400002F5491B04FA02F52844151EA2F1010225
:10065000F1DC30BD2DE9F05F0546002092469B4657
:1006600088460646814640241BE0284641464746C8
:100670002246FFF757FD53465A46C01A914110D300
:1006800011461846224600F016F82D1A67EB0108AD
:100690004F4622460120002100F00DF817EB00091B
:1006A0004E41201EA4F10104DFDC484631462A46B3
:1006B0004346BDE8F09F202A04DB203A00FA02F10D
:1006C000002070479140C2F1200320FA03F3194340
:1006D00090407047202A06DBCB17203A41FA02F0FF
:1006E00043EAE07306E041FA02F3D040C2F120028F
:1006F00091400843194670472DE9F04791460F464F
:1007000080460446002614F8015B2DB100F072F912
:100710000068405DC007F6D12B2D02D02D2D18D0DA
:10072000641E4A463946204600F068F927B1396808
:10073000A14201D1C7F8008071054FF002040BD52A
:100740004042002803DD02F0DBFE0460A007BDE8A4
:10075000F08746F48066E4E70028F8DA02F0D0FE7D
:1007600004606FF00040F2E70029A8BF7047401C0A
:10077000490008BF20F00100704710B4B0FA80FCB7
:1007800000FA0CF050EA010404BF10BC704749B1F4
:10079000CCF1200421FA04F411FA0CF118BF012164
:1007A00021430843A3EB0C01CB1D4FEA00614FEA44
:1007B000102042BF002010BC704700EBC350104413
:1007C0000029A4BF10BC7047401C490008BF20F09E
:1007D000010010BC704710B5141E73F1000408DA54
:1007E000401C41F1000192185B411A4301D120F0F5
:1007F000010010BD2DE9F04D92469B4611B1B1FAB2
:1008000081F202E0B0FA80F220329046FFF753FF07
:1008100004460F4640EA0A0041EA0B0153465A4695
:10082000084313D0114653EA010019D0C8F1400221
:100830005046FFF777FC05460E465046594642465D
:10084000FFF739FF084305D0012004E02046394670
:10085000BDE8F08D0020054346EAE0762C4337439F
:100860000A986305E40AA0EB08000022FD0A44EAA6
:1008700047540A3002D500200146E9E70105101966
:100880006941DDE9084500196941BDE8F04DA2E77D
:100890002DE9F04D81EA030404F0004B21F00045FE
:1008A00014464FF0000A23F0004150EA050220D020
:1008B00054EA01021DD0C5F30A570246C5F31303DB
:1008C000C1F31300C1F30A5640F4801543F48013BA
:1008D000A7EB0608101BD64608F2FD3873EB05009F
:1008E00002D308F1010801E092185B41B8F1000F52
:1008F00003DA00200146BDE8F08D00204FF480119E
:10090000064684460EE0171B73EB050705D3121B42
:1009100063EB050306434CEA010C49084FEA30003B
:1009200092185B4150EA0107EDD152EA030012D060
:1009300082EA040083EA0501084305D0101BAB419D
:1009400006D20122002306E000224FF0004302E01D
:100950006FF0010253101AEB06004CEB085110EB3C
:100960000A0041EB0B01BDE8F04DFFF734BFC1F3C6
:100970000A52C1F3130140F2FF3341F480119A424D
:1009800002DA00200146704740F233439A42A2F255
:10099000334202DC5242FFF7C5BBFFF78CBE0000BA
:1009A00030B5041E71F1000404DB4FF000444042F6
:1009B00064EB0101141E73F1000405DB1C464FF0CB
:1009C0000043524263EB0403994208BF904230BD9A
:1009D000064C074D06E0E06840F0010394E807008C
:1009E00098471034AC42F6D3FFF784FBB0430008BD
:1009F000D043000800487047104300082DE9F05F1D
:100A000082460078002715468B460AF10104B94654
:100A1000302801D09DB113E014F8010B012778288C
:100A200003D0582801D045B10AE00DB1102D07D1EF
:100A30000027102514F8010B02E0082500E00A2524
:100A40000026B0460EE005FB080005FB06F1012775
:100A500001EB10461FFA80F8B6F5803F00D3B94687
:100A600014F8010B294600F018F80028EBDABBF166
:100A7000000F05D00FB1641E00E05446CBF80040D3
:100A8000B9F1000F06D002F03BFD02210160C81E43
:100A9000BDE8F09F48EA0640FAE73A2800D230382D
:100AA00020F02002412A01D3A2F13700884201D36D
:100AB0004FF0FF307047000010B500F0B9F8012288
:100AC000BDE810409103014800F083BA000C0140DA
:100AD0002DE9F047DFF8549005464FF48048002296
:100AE0004146484600F075FA114F124C0026B85D99
:100AF00001F0AAFEA055761CF6B2092EF7D301220A
:100B00004146484600F065FA60782870E078C043B6
:100B100068702079C043A8706079E870A079287166
:100B2000E0796871207AA871BDE8F087000C014077
:100B30005C4200085C000020FEE74FF461718842CF
:100B400001DD084602E0962800DA9620404203B212
:100B50001A461846114601F0C1BC4FF46171884233
:100B600001DD084602E0962800DA962003461A4680
:100B7000114601F0B3BC000010B51A4C002201214F
:100B8000204600F026FA00220221204600F021FA39
:100B900000221021204600F01CFA002220212046CD
:100BA00000F017FA00220421204600F012FA002279
:100BB0000821204600F00DFA00224021204600F0D6
:100BC00008FA00228021204600F003FA064900209E
:100BD0000A6850630A6890630A68D0630968086409
:100BE00010BD0000000801408000002030B44FF428
:100BF0006171884201DD084602E0962800DA9620FD
:100C0000414203460AB230BC1946104601F066BCA8
:100C10004FF46171884201DD084602E0962800DA4F
:100C2000962041420BB21946024601F057BC000023
:100C30000648016841F0807101600548002141606B
:100C4000016841F00101016070470000FCED00E027
:100C5000001000E07047000009480068406A094938
:100C600002B20889101A00B2B0F5004F02DA10F58E
:100C7000004F00DC00B20B688A60184408607047BF
:100C8000C80000200000002009480068406A0949A7
:100C900002B28889101A00B2B0F5004F02DA10F5DE
:100CA000004F00DC00B24B68CA60184448607047CF
:100CB0001001002000000020064800210160416072
:100CC00005490968496A816004490968496AC1603F
:100CD0007047000000000020C80000201001002024
:100CE00072B6FEE710B590F821100022022905D057
:100CF0000421816380F82020012010BD01680B6869
:100D000023F00E030B6001680B6823F001030B60F6
:100D100090F84030C46B012101FA03F3636080F85E
:100D2000211080F82020104610BD000010B590F86A
:100D300021100024022903D00421816301243DE015
:100D400001680A6822F00E020A6001680A6822F04F
:100D500001020A601A4A0168914201D1012121E091
:100D6000174A1432914201D110211BE0144A283253
:100D7000914201D1891515E0114A3C32914201D1CD
:100D800089140FE00E4A5032914202D14FF4803163
:100D900008E00B4A6432914202D14FF4801101E025
:100DA0004FF08071064A083A5160012180F8211005
:100DB000002180F82010416B01B18847204610BD0A
:100DC0000800024070B5044600F008F90546601CB2
:100DD00002D004480078044400F000F9401BA0420F
:100DE000FAD370BD400000202DE9F84FDFF8B8912C
:100DF0000024A9F1040B23460F2709F1040AABF1E3
:100E0000040EC9E00125A5402A40AA427DD1674EC3
:100E1000D1F804C0ACEB0608B44532D014DCBCF108
:100E2000030F3AD009DCBCF1000F2AD0BCF1010F4E
:100E30001CD0BCF1020F31D11DE0BCF1110F17D055
:100E4000BCF1120F2AD119E0B8F5881F19D006DCC1
:100E5000B8F5803F15D0B8F5801F1FD111E0B8F567
:100E6000001F0ED0B8F5041F18D10AE0CB6815E0BA
:100E7000CB681B1D12E0CB6808330FE0CB680C3346
:100E80000CE08B682BB1012B4FF0080303D04561B8
:100E900004E0042302E0056100E00023FF2A01D8FA
:100EA000064601E000F104064FEA840501D9A5F1E8
:100EB0002005D6F8008007FA05FC28EA0C0803FA9A
:100EC00005F548EA0508C6F800804D68ED0062D5D2
:100ED000374DAE6946F00106AE61AD6924F00306F8
:100EE00005F001050095334D06EB050CDCF80850C4
:100EF000A607360F07FA06F825EA0805DFF8B880D6
:100F0000404503D14FF0000817E044E0DFF8AC8023
:100F1000404502D14FF001080FE0DFF8A4804045C2
:100F200002D14FF0020808E0DFF89880404502D176
:100F30004FF0030801E04FF0040808FA06F848EA09
:100F40000508CCF808804D68D9F80060ED024D46E0
:100F500001D5164300E096432E604D68DAF8006034
:100F6000AD02554601D5164300E096432E604D680C
:100F7000DBF80060AD035D4601D5164300E0964303
:100F80002E604D68DEF80060ED03754601D516430E
:100F900000E096432E60641C0D682A46E5407FF40D
:100FA00031AFBDE8F88F00000804014000001110C7
:100FB000001002400000014000080140000C014008
:100FC00000100140001401408068084000D001205A
:100FD00070470AB1016170470904FBE70148806866
:100FE00070470000400000200248816802781144E8
:100FF0008160704740000020074810B5016841F04B
:1010000010010160032000F075F80F2000F006F8D1
:1010100000F024F8002010BD0020024070B50D4DF6
:1010200004464FF47A712878B1FBF0F00A49096858
:10103000B1FBF0F000F0DCFA48B9102C07D2002226
:101040002146501E00F036F800206C6070BD012073
:1010500070BD0000400000204C0000200C4808B586
:10106000816941F001018161816901F00101009113
:10107000C16941F08051C161C06900F080500090A9
:101080000448416821F0E06141F00071416008BD11
:101090000010024000000140002809DB00F01F02A0
:1010A000012191404009800000F1E020C0F80011CA
:1010B00070470000F0B40E4B1B680C46C3F30223CC
:1010C000C3F10705042D00D90425191D072901D2F4
:1010D000002300E0DB1E012606FA05F1491E21402F
:1010E00099409E40761E16403143F0BC02F0F8B99C
:1010F0000CED00E0064900F0070208684FF6FF0318
:10110000184040EA0220034A10430860704700007C
:101110000CED00E00000FA052DE9F0470F46050050
:1011200061D0434E306800F00700B84209D2306801
:1011300020F0070038433060306800F00700B84204
:1011400051D128683B4C810712D5400703D5606810
:1011500040F4E06060602878000703D5606840F4E0
:10116000605060606068A96820F0F000084360602B
:101170002878C00728D06868012810D02168022884
:1011800010D0890700292EDA616821F0030101439C
:101190006160FFF723FF804641F288390DE0216846
:1011A0008903EFE78901EDE7FFF718FFA0EB0801DE
:1011B000494502D90320BDE8F0876068696800F0FE
:1011C0000C00B0EB810FEFD1306800F00700B8429F
:1011D0000BD9306820F0070038433060306800F0E9
:1011E0000700B84201D00120E5E72878400705D57F
:1011F0006068E96820F4E0600843606028780007D0
:1012000006D56068296920F4605040EAC10060603A
:1012100000F038F86168084AC1F30311515CC84016
:101220000649086006480068FFF7F8FE0020C2E79C
:101230000020024000100240774200084C000020CD
:10124000440000200448054900684968044AC1F385
:101250000221515CC84070474C0000200010024041
:10126000874200080448054900684968044AC1F3F8
:10127000C221515CC84070474C0000200010024061
:10128000874200080E4A51680E4801F00C03042BF7
:1012900011D0082B0FD10C48C1F38343C903C05CA4
:1012A0000AD55168084AC1F34041921E515C054A73
:1012B0005043B0FBF1F070470449484370470000C9
:1012C0000010024000127A006742000800093D0049
:1012D0002DE9F84F040070D02078C04DC00749D0E8
:1012E0006868C0F38100012807D06868C0F38100F6
:1012F000022809D16868C00306D52868800339D55B
:1013000060680028E7D035E06068B0F5803F0BD01A
:1013100010B1B0F5A02F11D0286820F480302860DB
:10132000286820F4802002E0286840F4803028609B
:10133000606890B1FFF752FE06460AE0286840F464
:1013400080202860F0E700BFFFF748FE801B64287C
:1013500073D828688003F7D50CE0FFF73FFE0646F8
:1013600005E000BFFFF73AFE801B6428F0D828682C
:101370008003F7D420789A4E80074FF001094FF090
:10138000000839D5686810F00C0F07D06868C0F302
:101390008100022809D16868C00306D42868800744
:1013A00014D52069012808D110E02069B0B1C6F831
:1013B0000090FFF713FE074605E00AE1FFF70EFE77
:1013C000C01B0228C4D828688007F7D5286861693F
:1013D00020F0F80040EAC10028600DE0C6F8008067
:1013E000FFF7FCFD074604E0FFF7F8FDC01B0228ED
:1013F00023D828688007F7D4207800072CD57948AF
:10140000A169D9B1C0F80090FFF7E8FD074604E0F4
:10141000FFF7E4FDC01B02280FD8686A8007F7D5E4
:1014200071484FF4FA510068B0FBF1F0009000BF32
:101430000098411E0091FAD20EE080E0C0F80080D2
:10144000FFF7CCFD074604E0FFF7C8FDC01B0228EC
:1014500075D8686A8007F7D42078400760D5E869B6
:101460000027C00008D4E86940F08050E861E869CE
:10147000012700F0805000905C480168C90513D432
:101480000168834641F480710160FFF7A7FD824641
:1014900006E000BFFFF7A2FDA0EB0A0064284ED8CB
:1014A000DBF80000C005F5D5E06801280AD008B1D6
:1014B000052813D0286A20F001002862286A20F04D
:1014C000040002E0286A40F001002862E06841F26E
:1014D000883B98B1FFF782FD82460BE0286A40F016
:1014E00004002862EEE700BFFFF778FDA0EB0A01D9
:1014F00059455AD8286A8007F6D50CE0FFF76EFDEB
:10150000824605E0FFF76AFDA0EB0A0159454CD879
:10151000286A8007F6D41FB1E86920F08050E8619E
:10152000E06988B36968C1F38101022944D00228C7
:10153000C6F8608004D0FFF751FD044638E034E07F
:10154000FFF74CFD074604E0FFF748FDC01B0228EB
:101550002BD828688001F7D4206AB0F5803F05D1E8
:101560006868A16820F4003008436860D4E9080185
:101570000843696821F4741108436860C6F86090F4
:10158000FFF72CFD044606E025E000BFFFF726FD2F
:10159000001B022809D828688001F7D51BE000BF8E
:1015A000FFF71CFD001B022802D90320BDE8F88FBD
:1015B00028688001F4D40EE00128F7D06868226A18
:1015C00000F48031914204D1616A00F470108842C5
:1015D00001D00120EAE70020E8E700000010024007
:1015E00000004242800442424C0000200070004053
:1015F00010B5401EB0F1807F01D3012010BD4FF027
:10160000E02460610F21601701F06AFF0020A061F3
:1016100007202061002010BD10B590F83C20012A61
:1016200022D0012280F83C20CA688C6822F44072E3
:1016300022434C6822F4806222430C6822F4006248
:1016400022430C6922F4805222434C6922F4005256
:101650002243C969002322F480420A4301684A6494
:1016600080F83C30002010BD022010BD70B590F80D
:101670003C20012A26D0012480F83C40022280F838
:101680003D2003685A689D6822F070060A6832435C
:101690005A600D4B02689A4208D0B2F1804F05D0D3
:1016A0000A4B9A4202D00A4B9A4204D1496825F06B
:1016B00080031943916080F83D40002180F83C1080
:1016C000084670BD022070BD002C0140000400409F
:1016D0000008004010B5040003D094F83D0010B19C
:1016E00007E0012010BD002084F83C00204600F0F7
:1016F0001FF8022084F83D00211D206801F02CFA1B
:10170000012084F8460084F83E0084F83F0084F805
:10171000400084F8410084F8420084F8430084F8D3
:10172000440084F8450084F83D00002010BD00000E
:1017300008B50C4A01680C48914207D1816941F40F
:1017400000618161806900F4006009E0074A91420C
:1017500007D1C16941F00401C161C06900F0040012
:10176000009008BD002C014000100240000800401D
:1017700070B5044690F83C000025012817D00126DA
:1017800084F83C60022084F83D002068826822F0E2
:10179000770222F47F4282600868502838D00DDC3E
:1017A00020284FD005DC90B3102811D14AE0022048
:1017B00070BD302846D040280AD13BE060282FD0A9
:1017C00070280DD0B0F5805F03D0B0F5005F12D067
:1017D000012584F83D60002084F83C00284670BD57
:1017E000CB68D1E90121206801F0FFF92068816808
:1017F00041F0770109E0CB68D1E90121206801F0CF
:10180000F4F92068816841F480418160E1E719E0E2
:10181000CA684968206801F09DFA5021206806E0F6
:10182000CA684968206801F0A6FA6021206801F0C2
:10183000E6F9CEE7CA684968206801F08BFA4021D2
:101840002068F4E7226801461046F0E72DE9F041F0
:101850000D46040003D094F83D0018B108E00120C3
:10186000BDE8F081002084F83C00204600F040F8FC
:10187000022084F83D002068816844F20702914309
:101880008160211D206801F067F9226890689169E4
:10189000166A2B68AF69034340F20330814341EA83
:1018A0000721A868EF6908434FF6FC418843E968BF
:1018B00040EA0720014328692F6A000140EA073007
:1018C000084369686D6926F0220646EA0515294332
:1018D00093602268906154F8460B0162012004F87D
:1018E0001F09E0752076E0762077A0750020B7E725
:1018F000F0B585B000260096019602960396016821
:101900002D4801252D4F2E4CB1F1804F23D02D4A6B
:1019100091421ED1C16941F00201C161C16901F06A
:1019200002010491816941F0080181618069694681
:1019300000F0080004903020009002953846FFF730
:1019400053FA606820F4406040F0E06040F40060CA
:10195000606005B0F0BDC16941F00101C161C169BC
:1019600001F001010491816941F004018161816903
:1019700001F004010491816941F0080181618069ED
:10198000694600F0080004904FF400400090029572
:101990000D48FFF729FA0820CDE9000669460295AF
:1019A0003846FFF721FA606820F4407040F0E060AC
:1019B00040F48070CCE7000000100240000C0140B1
:1019C00000000140000400400008014070B590F89C
:1019D0003E60044690F83F5090F8423090F8432023
:1019E000022021B104290ED0012E1BD114E0012EBA
:1019F00018D1012B16D184F83E0084F84200012250
:101A00000021206820E0012D0CD1012A0AD184F8A0
:101A10003F0084F8430014E0012D03D1012B01D1D4
:101A2000012A01D0012070BD84F83E0084F83F00F7
:101A300084F8420084F8430001220021206801F06C
:101A4000C7F801220421206801F0C2F8206801686B
:101A500041F001010160002070BD000000B585B0BB
:101A600000210091019102910391164B02681648E2
:101A700002219A420FD1826942F004028261806998
:101A8000039100F0040004904FF47060CDE9000170
:101A900069460E4811E00E4B9A4210D1826942F01D
:101AA000080282618069039100F0080004904FF4FD
:101AB0007070CDE9000169460648FFF795F905B059
:101AC00000BD0000002C0140001002400008014051
:101AD00000080040000C014070B5044690F83C003E
:101AE00000260D4601280FD0012084F83C006AB181
:101AF000042A1DD0082A2FD00C2A3FD0012600200E
:101B000084F83C00304670BD022070BD206801F0B2
:101B10007FF82068816941F008018161206881694E
:101B200021F004018161206881692A69114311E073
:101B3000206801F095F82068816941F400618161B5
:101B40002068816921F480618161206881692A6946
:101B500041EA02218161D2E7206801F0ADF82068F6
:101B6000C16941F00801C1612068C16921F0040127
:101B7000C1612068C1692A69114311E0206801F040
:101B8000C7F82068C16941F40061C1612068C1697A
:101B900021F48061C1612068C1692A6941EA02219A
:101BA000C161ACE710B5040003D094F83D0010B15A
:101BB00007E0012010BD002084F83C00204600F022
:101BC0001EF8022084F83D00211D206800F0C4FFAB
:101BD000012084F8460084F83E0084F83F0084F831
:101BE000400084F8410084F8420084F8430084F8FF
:101BF000440084F8450084F83D00002010BD704783
:101C000010B50446022249B104290ED0082913D088
:101C100094F84100012816D0012010BD94F83E0030
:101C20000128F9D184F83E200FE094F83F00012804
:101C3000F2D184F83F2008E094F840000128EBD16D
:101C400084F8402001E084F841200122206800F05F
:101C5000BFFF0F492068884203D1426C42F4004222
:101C600042642068884208D0B0F1804F05D009490D
:101C7000884202D00849884204D1816801F00701F6
:101C8000062903D0016841F001010160002010BD68
:101C9000002C0140000400400008004070477047DD
:101CA000F8B5016804460868CA684B6910F00F0F60
:101CB0004FF0000559D003F0010602F49077374346
:101CC00065D0C10705D0D10503D5616C41F0010194
:101CD0006164410705D5D90703D0616C41F0020169
:101CE0006164810705D5D90703D0616C41F0040117
:101CF0006164010707D502F02001314303D0616C14
:101D000041F008016164616C00293AD0800604D575
:101D1000900602D5204601F08FFA20684069616C78
:101D2000C0F38010090700D460B3204601F03DF8ED
:101D300020684069400621D52068143050E8001F13
:101D400021F0400140E80012002AF5D1E06BA8B173
:101D50006D494163E06BFEF7E9FF002811D0E06BAD
:101D6000416B01B0BDE8F040084783060FD59306EC
:101D70000DD52046BDE8F84001F05EBA2046FFF7D9
:101D80008EFFF8BD2046FFF78AFF6564F8BD266B1D
:101D90002023012E7CD1C6067AD5D60678D50868D0
:101DA0004868009048694FF00206400640D5E16B54
:101DB000086840680004000CE8D0A28D8242E5D992
:101DC000E085886920282DD020680C3050E8001F5D
:101DD00021F4807140E80012002AF5D12068143007
:101DE00050E8001F21F0010140E80012002AF5D15F
:101DF0002068143050E8001F21F0400140E8001234
:101E0000002AF5D184F84230256320680C3050E870
:101E1000001F21F0100140E80012002AF5D1E06B0C
:101E2000FEF760FF6663A08DE18D401A81B22AE063
:101E3000A08DE18D401A81B2E08D0028A6D0002946
:101E4000A4D022680C3252E8000F20F4907042E8CF
:101E50000007002FF5D12068143050E8002F22F041
:101E6000010240E80027002FF5D184F842302563B5
:101E700020680C3050E8002F22F0100240E80023C8
:101E8000002BF5D166632046FFF708FFF8BDFFE79A
:101E900005062BD5150629D594F841002128F5D142
:101EA000A068B0F5805F01D12069B0B1206A411C03
:101EB0002162216800784860E08C401E0004000C1C
:101EC000E084E3D12068C16821F08001C16020680E
:101ED000C16841F04001C160D8E7206A0088C0F3C2
:101EE00008004860206A801C2062E5E74006CDD5E6
:101EF0005006CBD5CA68204622F04002CA6084F85A
:101F0000413000F0FDF8C1E79B2D000870B50400DA
:101F100004D094F84100002510B106E0012070BD06
:101F200084F84050204600F023F8242084F8410033
:101F30002068C16821F40051C160204601F008FA10
:101F40002068016921F4904101612068416921F014
:101F50002A0141612068C16841F40051C160656493
:101F6000202084F8410084F842006563002070BDA1
:101F700030B585B000240094019402940394006865
:101F8000184988422CD11848C16941F48021C161A7
:101F9000C16901F480210491816941F008018161E6
:101FA0008069124D00F0080004904FF480600090AA
:101FB000022001900320039069462846FEF714FF93
:101FC000E814CDE90004694628460294FEF70CFFA8
:101FD000002211462720FFF76DF82720FFF75CF855
:101FE00005B030BD0048004000100240000C014028
:101FF00090F84230202B01D00220704721B11AB155
:102000000023036301F000BA0120704770B5006837
:10201000104988421CD1104C0025104A21780A2909
:1020200008D00D2906D060887F2808D21154401CA2
:10203000608005E0608818B1155400F0E7FE658007
:10204000BDE870400548012203498030FFF7D0BF4A
:1020500070BD0000004800403C000020A0010020AE
:102060002DE9F843044690F84100984616460D467F
:10207000202802D00220BDE8F88385B17EB100207F
:102080006064212084F84100FEF7A8FFA684814601
:10209000E684A0682027B0F5805F02D003E001202D
:1020A000E9E7206910B12E4600250EE000260CE07D
:1020B0008021204601F0C3F9A8B9C6B116F8010B7A
:1020C00021684860E08C401EE084E08C4B464FF075
:1020D0000002CDF800800028EAD14FF040012046F0
:1020E00001F0ADF940B184F841700320C3E735F841
:1020F000020BC0F30800E3E784F841700020BAE760
:102100007047FEE72DE9F04186B000242548009491
:10211000019402940394816941F0200181618169F5
:1021200001F020010491816941F00401816181691C
:1021300001F004010491816941F008018161806925
:10214000194F00F0080004900022FF213846FEF7E6
:1021500040FFDFF858804FF4604601223146404688
:10216000FEF737FFFF200125CDE900050220CDE96C
:10217000024069463846FEF737FE2803CDE90004E1
:10218000694640460294FEF72FFE0320CDE9024047
:10219000CDE9006569464046FEF726FE06B0BDE87B
:1021A000F08100000010024000080140000C0140D6
:1021B00010B596B000240F941094119412941394B7
:1021C0001C2168461494FDF7C4FF202107A8FDF7E1
:1021D000C0FF3548334901604721C0E9011440F28E
:1021E000E731C0E903148021C0E90541FFF772FA25
:1021F00008B1FEF775FD4FF480500F900FA92A48E3
:10220000FFF7B6FA08B1FEF76BFD2748FFF7CAFCE7
:1022100008B1FEF765FD139413A923481494FFF742
:1022200025FA08B1FEF75CFD6020CDE900040294B8
:10223000039404940594002269461B480694FFF712
:102240004BFC08B1FEF74CFD042269461648FFF727
:1022500043FC08B1FEF744FD082269461248FFF727
:102260003BFC08B1FEF73CFD0C2269460E48FFF727
:1022700033FC08B1FEF734FD0794089409944FF439
:1022800000500A94CDE90B4007A907480E94FFF7C8
:10229000C3F908B1FEF724FD0348FFF7DFFB16B0D2
:1022A00010BD0000002C01408000002010B58CB053
:1022B00024216846FDF74DFF0024164809944FF08D
:1022C00080410A94C0E900144FF6FF71C0E9024151
:1022D0008021046181610320CDE9000401200621F1
:1022E000CDE902040491CDE9054007946946094807
:1022F0000894FFF7ABFA08B1FEF7F2FC099409A9BC
:1023000004480A94FFF7B2F9002801D0FEF7E8FC70
:102310000CB010BDC800002010B58CB02421684658
:10232000FDF717FF00241748099415490A94C0E9DE
:1023300000144FF6FF71C0E9024180210461816100
:102340000320CDE9000401200621CDE90204049117
:10235000CDE90540079469460A480894FFF776FAE4
:1023600008B1FEF7BDFC099409A906480A94FFF7D5
:102370007DF9002801D0FEF7B3FC0CB010BD0000C1
:10238000000400401001002010B58EB00024079416
:10239000089409940A940B941C2168460C94FDF748
:1023A000D8FE2C482A4901604721C0E9011444F6AF
:1023B0001F61C0E9031480218161FFF78BF908B127
:1023C000FEF78EFC4FF48050079007A92148FFF7D5
:1023D000CFF908B1FEF784FC1E48FFF7E3FB08B114
:1023E000FEF77EFC0B940BA91A480C94FFF73EF9FC
:1023F00008B1FEF775FC6020009040F2DC50CDE99A
:1024000001040022694613480494FFF765FB08B1F4
:10241000FEF766FC042269460E48FFF75DFB08B133
:10242000FEF75EFC082269460A48FFF755FB08B133
:10243000FEF756FC0C2269460648FFF74DFB08B133
:10244000FEF74EFC0348FFF709FB0EB010BD00007D
:1024500000080040580100200C4810B50A490160EE
:102460004FF4E1314160002181600C22C160C0E97C
:1024700004128161C161FFF749FD002803D0BDE866
:102480001040FEF72DBC10BD004800402002002087
:102490004FF461728E280CD911467F384843C1171A
:1024A00000EB5160C111914201DD104670470846B2
:1024B000704770280ED2C0F17F004FF4617148431D
:1024C000C11700EB5160C011904201DD0248704716
:1024D00040427047002070477CFCFFFF2DE9F05F11
:1024E000584C594D1E461746894680466FF0950B4D
:1024F0004FF0000A96280BDD012211462046FEF718
:1025000068FD002202212046FEF763FD404618E0E8
:10251000D8454FF000024FF00101204609DAFEF7DE
:1025200058FD012202212046FEF753FDC8F10000AC
:1025300007E0FEF74EFD002202212046FEF749FD8E
:10254000504629684863B9F1960F0BDD012210212E
:102550002046FEF73EFD002220212046FEF739FDF1
:10256000484618E0D9454FF000024FF010012046D0
:1025700009DAFEF72EFD012220212046FEF729FD73
:10258000C9F1000007E0FEF724FD002220212046CB
:10259000FEF71FFD504629688863962F0CDD012247
:1025A00004212046FEF715FD002208212046FEF7F3
:1025B00010FD2868C76319E05F454FF000024FF037
:1025C0000401204608DAFEF704FD01220821204616
:1025D000FEF7FFFC784207E0FEF7FBFC0022082133
:1025E0002046FEF7F6FC50462968C863962E0DDD9E
:1025F000012240212046FEF7ECFC002280212046EB
:10260000FEF7E7FC28680664BDE8F09F5E454FF0E2
:1026100000024FF04001204608DAFEF7DAFC012202
:1026200080212046FEF7D5FC704207E0FEF7D1FC82
:10263000002280212046FEF7CCFC50462968086421
:10264000E2E700000008014080000020FEE70000F3
:1026500010B5FEF791FA00210D48FFF7D1FA0421D9
:102660000B48FFF7CDFA08210948FFF7C9FA0C21FA
:102670000748FFF7C5FA3C210648FFF7A7F93C21B8
:102680000548FFF7A3F9BDE81040FEF715BB0000B1
:1026900080000020C800002010010020FEE700009C
:1026A00010B5FEF7D9FA044C2068FDF791FF0349F5
:1026B000FDF72BFE206110BD00000020C26A04411E
:1026C00010B5FEF7E1FA044C6068FDF781FF03499D
:1026D000FDF71BFE606110BD00000020C26A0441CE
:1026E00010B5FFF7DDFF0446FFF7EAFF014620467D
:1026F000FDF781FDBDE810404FF0FF31FDF743BE0F
:1027000010B5FEF7D9FA054C002020616061206207
:102710006062FEF763FCA06210BD000000000020B4
:1027200070B5034654074FF4C87003D5BDE8704038
:10273000FEF75CBA920703D5BDE87040FEF768BAB1
:102740000846FFF7A5FE44421846FFF7A1FE0146E2
:10275000601A214400B24FF4617509B26C420A4616
:102760000346A84201DD284602E0A04200DA2046E6
:10277000A94202DD29462A4603E0A14201DA2146A8
:102780002246AB4201DD2B4602E0A34200DA23469B
:10279000BDE87040FFF7A2BE70B50D460646FEF7D5
:1027A0001DFC28494A68821A142A4AD34860F00658
:1027B0000C4608D42078401DB4280BD8C1B20020A4
:1027C00000F0C8F806E0700604D42078052801D38C
:1027D000401FF3E7300608D46078401DB4280BD8BA
:1027E000C1B2012000F0B6F806E0B00604D460786B
:1027F000052801D3401FF3E7E80608D4A078401D60
:10280000B4280BD8C1B2022000F0A4F806E0680694
:1028100004D4A078052801D3401FF3E7280609D483
:10282000E078401DB4280CD8BDE87040C1B2032048
:1028300000F090B8A80604D4E078052801D3401F22
:10284000F2E770BD2C0000202DE9FC410646002077
:102850008DF8040001208DF8000047031C4CC503CF
:102860004FF480582CE000BF9DF80000304201D0AA
:10287000012200E0002239462046FEF7AAFB002292
:1028800029462046FEF7A5FB102001F0A7FA414695
:102890002046FEF799FB30B19DF804009DF800102A
:1028A00008438DF80400012229462046FEF791FBDB
:1028B000102001F093FA9DF8000040008DF8000010
:1028C0009DF800000028CFD19DF80400BDE8FC81F0
:1028D000000C01407047704710B500210A48FFF70F
:1028E0008FF904210848FFF78BF908210648FFF704
:1028F00087F90C210448FFF783F900F01FF8BDE8C1
:10290000104002A000F0DCBD580100205B5365724E
:10291000766F5D20496E697469616C697A65642CB3
:1029200020616C6C20736572766F7320617420393E
:102930003020646567726565730D0A0010B5002468
:102940005A21204600F006F8641CE4B2042CF7D3A8
:1029500010BD000010B50B460446B42900D9B423BD
:102960004FF4FA605843B421B0FBF1F000F5FA706F
:1029700081B2204600F006F80148035510BD000062
:102980002C000020084A126838B1012807D002281C
:1029900007D0032800D111647047516370479163D9
:1029A0007047D163704700005801002001488069DA
:1029B00070470000000000200148C0697047000017
:1029C000000000202DE9F05FFEF708FB1D4C0546D6
:1029D000A06A2F1A34D0FEF73FF98046FEF754F96B
:1029E0000646216A606AA8EB0101A6EB00090846C9
:1029F000FDF7EEFDDFF850B05946FDF786FC824644
:102A00004846FDF7E5FD5946FDF77FFC814638460F
:102A1000FDF7E7FD0D4F834639465046FDF743FC71
:102A20005946FDF772FCA061DA4639464846FDF783
:102A30003AFC5146FDF769FCC4E90708C4E9096599
:102A4000BDE8F09F00000020C26A044100007A4403
:102A50007CB5069D00B901204FF46174962901DA16
:102A6000962102E0A14200DD2146962D01DA96254D
:102A700002E0A54200DD25460F4C01262670667057
:102A800060602181A272E3602582A674FEF7A6FA37
:102A90006061FFF735FEB4F90800FEF75EF8B4F99F
:102AA0001010E068CDE90001A37AB4F9082003A072
:102AB000616800F005FD7CBD680000204F4B3A20A6
:102AC00053657175656E63652073746172746564B6
:102AD00020284620256C756D6D2040256420746883
:102AE000656E20256320256C756D73204025642953
:102AF0000D0A0000FEF778BA30B58FB0282168467D
:102B0000FDF727FB14210AA8FDF723FB0121080488
:102B1000CDE900100024029402250491CDE907506C
:102B20004FF4E01009906846FEF7D2FB08B172B688
:102B3000FEE70F20CDE90A054FF48060CDE90C4097
:102B400002210AA80E94FEF7E7FA002801D072B617
:102B5000FEE70FB030BD7047F0B50268194B1A4C54
:102B60001A4D4FF08047984205D0B84203D0A0429A
:102B700001D0A84203D122F070064A68324398423D
:102B800005D0B84203D0A04201D0A84203D122F41C
:102B90004074CA6822434C6922F0800222430260DA
:102BA0008A68C2620A688262984201D10969016337
:102BB000012141610169C90703D0016921F00101C7
:102BC0000161F0BD002C01400004004000080040FD
:102BD00010B501F01F030121046A99408C4304627F
:102BE000016A9A401143016210BD10B5846842EA3F
:102BF000032224F47F440A432243826010BD82688A
:102C000022F070020A4342F0070181607047000021
:102C100030B5036A026A22F00102026242688469E6
:102C200024F073050C682C4323F002058B682B43BA
:102C30000A4DA8420BD123F00805CB6822F440725C
:102C40002B434D6923F0040315438A692A434260EC
:102C5000846149684163036230BD0000002C01407B
:102C600030B5026A036A23F0100303624368846983
:102C70000D6824F4E64444EA05248D6822F020021D
:102C800042EA05120B4DA8420ED1CD6822F0800217
:102C900042EA05124D6923F4406343EA85038D69D6
:102CA00022F0400243EA85034360846149688163FE
:102CB000026230BD002C014030B5036A026A22F482
:102CC000807202624268C46923F4007324F07305C1
:102CD0000C682C438D6843EA05230C4DA8420ED1A5
:102CE000CD6823F4006343EA05234D6922F4405282
:102CF00042EA05128D6923F4806342EA05124260BC
:102D0000C4614968C163036230BD0000002C01400A
:102D100030B5046A026A22F4805202624268C369D2
:102D20000D6823F4E64343EA05238D6824F4005438
:102D300044EA0534064DA84204D14D6922F480428C
:102D400042EA85124260C36149680164046230BD91
:102D5000002C014010B5036A046A24F001040462E7
:102D6000846924F0F00444EA021423F00A020A43BE
:102D70008461026210BD10B5036A046A24F0100475
:102D80000462846923F0A00324F4704444EA02320C
:102D900043EA01118261016210BD10B5406A002151
:102DA000C185C184FEF77BFF10BD01680C3151E87D
:102DB000002F22F4907241E80023002BF5D1016826
:102DC000143151E8002F22F0010241E80023002BCA
:102DD000F5D1016B012909D101680C3151E8002FAF
:102DE00022F0100241E80023002BF5D1202180F8C9
:102DF0004210002101637047012202490248FFF797
:102E0000F7B800003C000020200200202DE9F0432C
:102E1000A1B07B4901A8FDF7B5F97AA101A8FDF79A
:102E2000BBF918B178A1FDF79FF908B177A081E04F
:102E30007EA10020FDF7B0F9040024D07CA1FDF7AD
:102E400093F9002821D07CA12046FDF78DF90028B8
:102E500066D07BA12046FDF787F9002864D07AA1CF
:102E60002046FDF781F9002861D07AA12046FDF7C0
:102E70007BF9002861D079A12046FDF775F900287B
:102E800076D079A056E07FA054E068A10020FDF73D
:102E900083F9054665A10020FDF77EF93DB130B10B
:102EA000FDF79CF904B2962C03DA962406E07CA088
:102EB00040E04FF46170844200DD044680A1284662
:102EC000FDF752F980B17FA12846FDF74DF988B191
:102ED0007DA12846FDF748F990B17CA12846FDF771
:102EE00043F998B17AA025E02046FDF736FE214649
:102EF0007EA010E02046FDF720FE214682A00AE0D9
:102F00002046FDF773FE214686A004E02046FDF72B
:102F10007FFE21468AA000F0D3FA21B0BDE8F083FD
:102F2000FDF72AFE8DA005E000F0E8F9F5E7FDF7D2
:102F3000C3FE8FA000F0C4FAEFE73CA10020FDF72C
:102F40002BF948B1FDF74AF910F0FF018D4805D083
:102F5000012907D08CA0EDE795A0EBE701709BA2BB
:102F600002E005E001709AA29BA000F0A9FAD4E764
:102F70002EA10020FDF710F907462CA10020FDF737
:102F80000BF9064629A10020FDF706F9044627A102
:102F90000020FDF701F9804624A10020FDF7FCF890
:102FA000054607B3FEB1F4B1B8F1000F1BD0D5B19F
:102FB0003846FDF713F981463046FDF70FF906B2A2
:102FC00024784046FDF70AF907462846FDF706F93A
:102FD00000B24C2C0CD0522C0AD06C2C07D0722C86
:102FE00003D084A0A6E78BA0A4E7522400E04C24E1
:102FF00000903B46224631464846FFF729FD8CE7C4
:10300000A00100203A000000434D44004552524FB9
:10301000523A20496E76616C696420636F6D6D6110
:103020006E6420666F726D61740D0A002C000000E2
:103030004D4F56450000000053544F500000000013
:10304000535441545553000052455345545F454E27
:10305000430000004D4F4445000000004D4F5645D1
:103060005F5455524E0000004552524F523A20557F
:103070006E6B6E6F776E20636F6D6D616E640D0A9F
:10308000000000004552524F523A204E6F20636FAD
:103090006D6D616E6420747970650D0A000000002A
:1030A0004552524F523A20496E76616C6964204D08
:1030B0004F564520636F6D6D616E640D0A00000010
:1030C00046000000420000004C00000052000000DA
:1030D0004552524F523A20496E76616C69642064C1
:1030E0006972656374696F6E0D0A00004F4B3A2078
:1030F0004D6F76696E6720666F72776172642061CA
:10310000742025640D0A00004F4B3A204D6F7669FC
:103110006E67206261636B77617264206174202541
:10312000640D0A004F4B3A205475726E696E672029
:103130006C6566742061742025640D0A000000002F
:103140004F4B3A205475726E696E672072696768DA
:10315000742061742025640D0A0000004F4B3A2052
:103160004361722073746F707065640D0A00000013
:103170004F4B3A20456E636F6465722072657365CC
:10318000740D0A00340000204552524F523A204933
:103190006E76616C6964206D6F64652028303D50E7
:1031A00053322C20313D55415254290D0A00000064
:1031B0004552524F523A204E6F206D6F6465207316
:1031C00070656369666965640D0A000050533200DA
:1031D00055415254000000004F4B3A204D6F64653A
:1031E0002073657420746F20256420282573290DB1
:1031F0000A0000004552524F523A20496E76616CE7
:103200006964207475726E2064697220284C2F5294
:10321000290D0A004552524F523A20496E76616C90
:103220006964204D4F56455F5455524E20636F6D73
:103230006D616E640D0A000008B590F842102229F5
:1032400001D0022008BD82684FF480539A4201D118
:10325000016921B1816A9A421BD04AB10AE0026831
:10326000816A5268C2F308020A80816A891C08E0F8
:10327000026972B10268526802F07F020A70816AC4
:10328000491C8162C18D491E0904090CC18503D006
:103290001BE002685268F1E70168CA6822F0200268
:1032A000CA600168CA6822F48072CA6001684A690B
:1032B00022F001024A61202180F84210002141637E
:1032C000026B012A03D0FEF7A1FE002008BD0163B6
:1032D00001680C3151E8002F22F0100241E8002370
:1032E000002BF5D101680A68D20602D50A68496840
:1032F0000091818DFEF7D2FCE7E7000010B5FDF7E5
:10330000ABFC0446FDF7C0FC0246044821460378A6
:10331000BDE8104002A000F0D3B800003400002047
:103320005354415455533A204C656674456E633D81
:10333000256C642C205269676874456E633D256C6A
:10334000642C204D6F64653D25640D0A000000006B
:1033500070B5044600680169E26821F440511143E8
:1033600001612169A0680843616908432168CA684E
:1033700041F20C639A430243CA6020684169A26922
:1033800021F44071114341611E492068884202D1F5
:10339000FDF768FF01E0FDF755FF00EBC00101EB11
:1033A0000012606864218000B2FBF0F3B3FBF1F31C
:1033B0006FF018067343B2FBF0F5B2FBF0F605EBC5
:1033C0008305322303EB0515B5FBF1F5B6FBF1F6EA
:1033D00005F0F00505EB0615B2FBF0F6B2FBF0F0D8
:1033E000B0FBF1F06FF01802504306EB800003EBE6
:1033F0000010B0FBF1F0216800F00F002844886055
:1034000070BD00000038014081628285C2850021C4
:103410004164222180F84210016921B10168CA6823
:1034200042F48072CA6001684A6942F001024A614E
:103430000068C16841F02001C160002070472DE99B
:10344000F843984617460D460446089E24E0701C33
:1034500022D0FDF7C3FDA0EB0800B0421AD8CEB1D0
:103460002068C168490717D5802D15D0402D13D08D
:103470000168C94309070FD401680025406800901E
:103480002046FFF792FC0820606484F84050012039
:10349000BDE8F8830320FBE72068006835EA0000F8
:1034A00004D00020B842D2D00020F1E70120F9E793
:1034B0000148FEF7F5BB000020020020FEE70000F7
:1034C0000FB4054B10B503A9044A029800F0EEF8BA
:1034D00010BC5DF814FB0000053E000854000020FD
:1034E0000907090E002804DB00F1E02080F8001431
:1034F000704700F00F0000F1E02080F8141D7047C5
:10350000004870475800002002E008C8121F08C198
:10351000002AFAD170477047002001E001C1121F54
:10352000002AFBD1704700002DE9FF5F82B0002127
:10353000DDE90430020DDDF840B0034318D044F655
:103540001050A2F2FF3242431514119801281FD0E7
:10355000A5EB0B00401C5FEA000A4FF000064E4F3F
:10356000DFF83891B046504615D5CAF1000413E093
:10357000119801244AA3012801D16FEA0B01029896
:10358000119AC0E90031C0E9024206B0BDE8F09FDF
:10359000CBF10000DFE704460021404A491842EB26
:1035A0000450CDE9001012E0E00707D032463B4658
:1035B00040464946FCF79AFF8046894632463B46DC
:1035C00010461946FCF792FF06460F466410002C81
:1035D000EAD1DDE90401DDE90023BAF1000F06DAE2
:1035E000FCF784FF42464B46FCF780FF05E0FDF701
:1035F0004FF942464B46FDF74BF904460E46002272
:10360000284BFDF7CDF903D84FF0FF30014607E016
:103610000022254B20463146FCF7C1FEFDF7A7F9F5
:10362000102409E0002C0ADB0A220023FDF712F81F
:10363000039B30321A55641E50EA0102F2D1641C19
:10364000039AC4F111031444119A012A03D00122F0
:1036500008430DD10AE0084304D000204FF0110BBD
:10366000119072E7A3EB0B056D1E0DE05B4504DDC9
:103670004FF0000205F1010504E003DA4FF000020B
:10368000A5F10105002AECD002981199C0E9023198
:10369000C0E9004579E70000000014400000F03F59
:1036A000300000000000F0430000E03F2DE9FF4F34
:1036B00095B09B468946064600250FE2252877D11E
:1036C00000242746F84A0121059400E0044316F837
:1036D000013F203B01FA03F01042F7D130782A284D
:1036E00011D06FF02F033078A0F13002092A16D8DC
:1036F000059A44F0020402EB820203EB42021044FA
:10370000761C0590EFE759F8042B0592002A03DA9E
:10371000504244F40054059044F00204761C307882
:103720002E2816D116F8010F44F004042A280DD0D3
:103730006FF02F023078A0F13003092B09D807EB86
:10374000870302EB4303C718761CF3E759F8047BA1
:10375000761C30786C280FD006DC4C2817D06828EF
:103760000DD06A2814D104E0742810D07A280FD123
:103770000DE044F400140AE044F4801401E044F441
:1037800040147278824202D104F58014761C761CB3
:10379000307866280BD013DC582877D009DC002855
:1037A00075D04528F6D04628F4D047281AD19DE197
:1037B00018E0632835D0642879D0652812D195E1C6
:1037C000702873D008DC6728F1D069286FD06E2884
:1037D0000DD06F2806D1B5E073282CD0752875D090
:1037E000782874D05A46179990476D1C75E1C4F338
:1037F0000250022809D003280DD0D9F8001004285F
:103800000DD00D6009F1040967E1D9F80010EA173D
:10381000C1E90052F6E7D9F800100D80F2E70D700B
:10382000F0E719F8041B8DF8001000208DF8010056
:10383000EA46012003E059F804AB4FF0FF3061077E
:103840004FF0000102D40DE008F101018846B942B1
:103850000FDA8045F8DB1AF808100029F4D108E0E7
:1038600008F1010188468142FADB1AF808100029A4
:10387000F6D105985B46A0EB080721463846179A13
:1038800000F094FA284400EB080507E04DE029E138
:103890000DE01AF8010B5A4617999047B8F1010844
:1038A000F7D25B4621463846179A13E142E00A22D6
:1038B0000092C4F302524FF0000A022A08D059F8CD
:1038C00004CB032A4FEAEC710AD00DE029E02AE08C
:1038D00009F1070121F00702F2E802C1914609E06F
:1038E0000FFA8CFC4FEAEC71042A03D14FFA8CFCDE
:1038F0004FEAEC71002907DA0A460021DCF1000CDE
:1039000061EB02012D2202E0220504D52B228DF865
:103910000420012203E0E20701D02022F7E79046CD
:1039200059E00A2102E010220DE010214FF0000AB8
:1039300000910BE010224FF0000A44F00404082725
:10394000009203E008224FF0000A0092C4F30252F2
:10395000022A05D059F804CB0021032A08D009E037
:1039600009F1070121F00702F2E802C1914605E0E2
:103970001FFA8CFC042A01D10CF0FF0C4FF0000858
:10398000220728D5702806D0009B83F0100353EA45
:103990000A0305D00EE040228DF80420012208E041
:1039A0005CEA010206D030228DF804208DF8050073
:1039B00002229046009B83F0080353EA0A030AD1CF
:1039C0005CEA010201D1620705D530228DF804209E
:1039D0004FF001087F1E582804D034A003900EA891
:1039E00002900DE036A0F9E753466046009AFCF7D6
:1039F00031FE84460398825C0298401E0290027059
:103A00005CEA0100F0D1029806A9081A00F1200A28
:103A1000600702D524F4803400E00127574502DD19
:103A2000A7EB0A0000E0002000EB0A0100900598D7
:103A30004144401A0590E00306D45B462146179A9C
:103A4000059800F0B3F90544002706E001A85A469E
:103A5000C05D179990476D1C7F1C4745F6DBE0035E
:103A60000CD55B462146179A059800F09FF905444E
:103A700004E030205A46179990476D1C0099481E63
:103A800000900029F5DC08E0029802995A46007877
:103A9000491C0291179990476D1CBAF10001AAF1D7
:103AA000010AF1DC65E10000092801003031323300
:103AB000343536373839616263646566000000006A
:103AC0003031323334353637383941424344454654
:103AD0000000000000F058F90544761C30780028FA
:103AE0007FF4ECAD19B02846BDE8F08F620700D432
:103AF000062709F1070222F0070CFCE80223E14641
:103B000003F000485FEA080C02D00FF2702C0DE0C1
:103B10005FEA045C02D50FF2682C07E05FEAC47C20
:103B200002D00FF2602C01E0AFF2700C4FF0FF38C2
:103B300023F00043CDF850C065280CD006DC4528A2
:103B400009D046281DD047283DD13DE0662818D031
:103B500067287ED138E00021112F01DB112000E021
:103B6000781CCDE9000106A90EA8FFF7DDFCDDE910
:103B70000F010E9A03910021009207F1010A0491AE
:103B80004DE04FF000400097CDE9011006A90EA8C6
:103B9000FFF7CAFCDDE90F0203920E9B1199002288
:103BA000DDF80CA00093049211B9791C00EB010A16
:103BB000B7EB0A0004D4C0F1FF3007F1010A04900A
:103BC000AAEB0700019044E0012F00DA0127002151
:103BD000112F01DD112000E03846CDE9000106A9D2
:103BE0000EA8FFF7A1FCDDE90F010E9A0391002159
:103BF00004910092BA4621070CD40399514500DA8A
:103C00008A46BAF1010F05DD009AAAF10101515C63
:103C1000302908D0B84202DA10F1040F06DA012187
:103C2000CDE9011015E0AAF10101E9E7002805DC62
:103C3000049901440491AAEB000102E0411C5145A2
:103C400000DD8A460499401A401C01904FF0004064
:103C50000290200704D40198504501DBCDF8048080
:103C600000208DF84F0002980DF14F07B0F1004F82
:103C700025D02B200E9002984FF0020800280CDA75
:103C8000404202902D200E9007E00A210298FCF796
:103C9000CBFC3031029007F8011DB8F10001A8F10A
:103CA0000108F2DC02980028EFD1791E0E98087006
:103CB000307800F0200040F0450007F8020D12A80F
:103CC000C01B00F107081498007800B1012000EB38
:103CD0000A01019801EBE07105984144401A401E29
:103CE0000590E00306D45B462146179A059800F03C
:103CF0005DF805441498007818B15A461799904712
:103D00006D1CE00324D55B462146179A059800F008
:103D10004DF805441CE00498002807DBDDE90301A9
:103D2000884203DD0098405C179901E01799302024
:103D30005A469047049805F10105401C04900198EB
:103D4000401E019004D12E205A46179990476D1CB1
:103D5000BAF10001AAF1010ADDDC05E017F8010B58
:103D60005A46179990476D1CB8F10001A8F1010857
:103D7000F4DC5B462146179A0598ABE62D0000005F
:103D80002B000000200000002DE9F0410446002532
:103D90001E461746880404D405E039462020B04763
:103DA0006D1C641EF9D52846BDE8F0812DE9F0416F
:103DB000044600251E469046C80301D5302700E082
:103DC0002027880404D505E041463846B0476D1CDD
:103DD000641EF9D52846BDE8F08100000649074A6F
:103DE0000968B1FBF2F141430548426843689B1AF8
:103DF0008B42FBD3704700004C00002040420F0074
:103E0000001000E013B54FF6FF7301226946024827
:103E1000FEF726F900981CBD2002002090B0FDF7A7
:103E2000EBF8FEF769FEFEF76DF9FEF7C1F9FEF754
:103E30003DFAFEF771FAFEF70FFBFEF7A5FA6420D4
:103E4000FCF7C0FFFCF738FEC820FCF7BBFF8CA0D6
:103E5000FFF736FB934D00249248FCF739FE2A7891
:103E6000611C91A0FFF72CFB2878732878D041289B
:103E700076D06420FCF7A6FF641C052CECDB894897
:103E80000078732804D0412802D090A0FFF718FBD7
:103E9000FEF7DEFBFEF720FDFEF7AEFF98A0FFF772
:103EA0000FFBA1A0FFF70CFBA9A0FFF709FB7D4CBE
:103EB000641E2078002857D0AEA1B0A0FFF700FB09
:103EC000B1A0FFF7FDFAB7A0FFF7FAFABAA0FFF723
:103ED000F7FA00208046064605460990FDF77EF871
:103EE0000446801B642802D32646FEF76BFD601B48
:103EF000B0F57A7F2ED32546FEF7D2FB0D90FEF764
:103F0000DFFB0090FEF7ECFB8146FEF74FFD074616
:103F1000FEF752FDFCF76AFB82468B463846FCF7FB
:103F200065FB04900F464846FCF760FBCDE90201B3
:103F30000098FCF75BFB009089460D98FCF756FB58
:103F40000B4605A9CDF8049081E8800C02469D48F7
:103F5000FFF7B6FA534F7F1E387838B130E0FFE7ED
:103F600099A0FFF7ADFA8AE79EA1A6E7A4EB0800A7
:103F70001428B3D3A0464B48FCF7AAFD4948017862
:103F800073293BD08146412938D0FCF7F5FD0998CB
:103F9000201AB0F5FA6F13D3099499F8051099F81F
:103FA000044099F8033099F806208DE81E0099F82E
:103FB000023099F8012099F800108B48FFF780FA39
:103FC000387801288AD1894C6078002886D0A07C76
:103FD00001282FD0022881D1FDF700F86169401A2D
:103FE000E16881423FF67AAFFCF7C6FD00206070C1
:103FF0002070A0747EA0FFF763FA6FE781464278D5
:1040000081794079FEF78CFB99F8021099F801004C
:10401000FEF7C2FB0998201AB0F5FA7FD0D30994B5
:1040200099F8003099F8062099F8051077A0FFF765
:1040300047FAC5E7FEF754FB07466068FCF7D1FA7C
:104040003946FCF7E7FAD8D8FCF796FD0220A074B1
:10405000FCF7C4FF6061A07A4C28B4F910000CD0C2
:10406000FCF7D6FD3846FCF7C1FAA27A0092024668
:104070000B466EA0FFF724FA30E7FCF7B7FDF1E737
:104080005B494E49545D2054657374696E672050D6
:10409000533220636F6E6E656374696F6E2E2E2EC1
:1040A0000D0A0000350000205B494E49545D205048
:1040B000533220546573742025643A204D6F646533
:1040C0003D3078253032580D0A0000005B494E49DA
:1040D000545D205741524E494E473A2050533220AA
:1040E0006E6F742064657465637465642120436831
:1040F00065636B2070616972696E672E0D0A00003E
:104100000D0A3D3D3D3D3D3D3D3D3D3D3D3D3D3D42
:104110003D3D3D3D3D3D3D3D3D3D3D3D3D3D3D3DCF
:104120003D3D3D0D0A0000002020505332204879CB
:104130006272696420436172202B20536572766F2E
:1041400020436F6E74726F6C20200D0A0000000017
:104150003D3D3D3D3D3D3D3D3D3D3D3D3D3D3D3D8F
:104160003D3D3D3D3D3D3D3D3D3D3D3D3D3D3D3D7F
:104170003D0D0A0055415254000000004D6F64652A
:104180003A2025730D0A00004D6F746F723A203487
:1041900078204D6563616E756D20576865656C7339
:1041A0000D0A0000536572766F3A203478204D472F
:1041B000393936520D0A00005265616479210D0AC1
:1041C0000D0A0000644300085B494E49545D2050CD
:1041D000533220436F6E6E6563746564204F4B21CC
:1041E0000D0A0000505332001443000868000020FC
:1041F0004F4B3A2053657175656E636520636F6D33
:10420000706C657465640D0A000000005B505332E9
:104210005D204C4A282533642C25336429204D6FBA
:1042200064653A3078253032580D0A004F4B3A20F9
:1042300044697374616E6365207265616368656467
:1042400020252E31666D6D2C20737461727420747C
:1042500075726E696E672025630D0A0001420000C9
:104260000000000000010202030405060708090A15
:104270000B0C0D0E0F1010000000000000000001DC
:1042800002030406070809000000000102030400FD
:104290004040404040404040404141414141404019
:1042A000404040404040404040404040404040400E
:1042B00005020202020202020202020202020202DB
:1042C00020202020202020202020020202020202A2
:1042D00002909090909090101010101010101010EC
:1042E0001010101010101010101010020202020214
:1042F0000288888888888808080808080808080844
:10430000080808080808080808080802020202400D
:10431000904200085B5053325D204E6F20636F6EF9
:1043200074726F6C6C657220284D6F64653A3078DA
:10433000253032582062746E313A30782530325848
:104340002062746E323A307825303258204C4A3A26
:1043500025642C256420524A3A25642C2564290DB5
:104360000A0000005B4F646F6D657465725D204CE0
:104370003A252E31666D6D20523A252E31666D6DCF
:1043800020546F74616C3A252E31666D6D207C204F
:104390005370656564204C3A252E31666D6D2F7320
:1043A00020523A252E31666D6D2F730D0A000000E4
:1043B000D0430008000000205C0000000835000821
:1043C0002C4400085C0000200C0600001835000892
:1043D00000000000000000000000000000000000DD
:1043E00000000000000000000000000000000000CD
:1043F0000000000000000000000000005A5A5A5A55
:1044000000000000000000000000000000000000AC
:1044100001000000100000000000000000127A00FF
:0C44200000000000000000000000000090
:04000005080000ED02
:00000001FF
