:020000040800F2
:100000003806002001010008911F0008F7190008B8
:10001000411F000851040008F52A000800000000F4
:100020000000000000000000000000004B2100085C
:100030006D05000800000000492100082122000889
:100040001B0100081B0100081B0100081B01000820
:100050001B0100081B0100081B0100081B01000810
:100060001B0100081B0100081B0100081B01000800
:100070001B0100081B0100081B0100081B010008F0
:100080001B0100081B0100081B0100081B010008E0
:100090001B0100081B0100081B0100081B010008D0
:1000A0001B0100081B0100081B0100081B010008C0
:1000B0001B0100081B0100081B0100081B010008B0
:1000C0001B0100081B0100081B0100081B010008A0
:1000D0001B0100081B0100081B010008E92A000899
:1000E0001B0100081B0100081B010008DFF80CD0F1
:1000F00000F0FAF8004800470530000838060020F4
:100100000648804706480047FEE7FEE7FEE7FEE7B1
:10011000FEE7FEE7FEE7FEE7FEE7FEE783220008D4
:10012000ED000008202A04DB203A21FA02F0002129
:10013000704721FA02F3D040C2F1200291400843F7
:1001400019467047D2B201E000F8012B491EFBD2DC
:1001500070470022F6E710B513460A4604461946D2
:10016000FFF7F0FF204610BD10B5002200E0521C42
:10017000835C8C5CA34201D1002BF8D1D8B2E1B2F0
:10018000401A10BD034611F8012B00F8012B002A7C
:10019000F9D118467047000070B50F4D00B92868B6
:1001A000002412E00A4602E09E4203D0521C13785B
:1001B000002BF9D1DAB2224305D02BB124B10021B2
:1001C00000F8011B04E00446401C0678002EE9D12B
:1001D0002860204670BD00003400002070B506463F
:1001E00002F0AAFC046805460A220021304600F00D
:1001F00042F82C6070BD2DE9F05F05460020924664
:100200009B4688460646814640241BE028464146D8
:1002100047462246FFF786FF53465A46C01A914189
:1002200010D311461846224600F016F82D1A67EB37
:1002300001084F4622460120002100F00DF817EB7F
:1002400000094E41201EA4F10104DFDC484631467E
:100250002A464346BDE8F09F202A04DB203A00FAF4
:1002600002F1002070479140C2F1200320FA03F30D
:100270001943904070472DE9F04791460F4680465C
:100280000446002614F8015B2DB100F03FF8006829
:10029000405DC007F6D12B2D02D02D2D18D0641E45
:1002A0004A463946204600F035F827B13968A14260
:1002B00001D1C7F8008071054FF002040BD5404210
:1002C000002803DD02F038FC0460A007BDE8F087D9
:1002D00046F48066E4E70028F8DA02F02DFC0460BA
:1002E0006FF00040F2E70000064C074D06E0E068C2
:1002F00040F0010394E8070098471034AC42F6D36D
:10030000FFF7F8FEC8320008E832000800487047DE
:10031000C43200082DE9F05F8246007800271546B8
:100320008B460AF10104B946302801D09DB113E093
:1003300014F8010B0127782803D0582801D045B1C3
:100340000AE00DB1102D07D10027102514F8010B7C
:1003500002E0082500E00A250026B0460EE005FB75
:10036000080005FB06F1012701EB10461FFA80F893
:10037000B6F5803F00D3B94614F8010B294600F0CA
:1003800018F80028EBDABBF1000F05D00FB1641E9E
:1003900000E05446CBF80040B9F1000F06D002F05F
:1003A000CBFB02210160C81EBDE8F09F48EA064071
:1003B000FAE73A2800D2303820F02002412A01D34F
:1003C000A2F13700884201D34FF0FF3070470000A0
:1003D00010B500F0B9F80122BDE8104091030148C2
:1003E00000F071BA000C01402DE9F047DFF854909D
:1003F00005464FF4804800224146484600F063FA23
:10040000114F124C0026B85D01F058FEA055761C25
:10041000F6B2092EF7D301224146484600F053FABE
:1004200060782870E078C04368702079C043A87075
:100430006079E870A0792871E0796871207AA871F4
:10044000BDE8F087000C0140103200084000002099
:10045000FEE74FF46171884201DD084602E096280C
:1004600000DA9620404203B21A461846114601F0BF
:10047000AFBC4FF46171884201DD084602E0962866
:1004800000DA962003461A46114601F0A1BC00008E
:1004900010B51A4C00220121204600F014FA002267
:1004A0000221204600F00FFA00221021204600F021
:1004B0000AFA00222021204600F005FA0022042139
:1004C000204600F000FA00220821204600F0FBF947
:1004D00000224021204600F0F6F90022802120462B
:1004E00000F0F1F9064900200A6850630A68906339
:1004F0000A68D0630968086410BD00000008014064
:100500004C00002030B44FF46171884201DD084690
:1005100002E0962800DA9620414203460AB230BC37
:100520001946104601F054BC4FF46171884201DD58
:10053000084602E0962800DA962041420BB219469E
:10054000024601F045BC00000648016841F0807198
:100550000160054800214160016841F0010101602E
:1005600070470000FCED00E0001000E07047000064
:1005700009480068406A094902B20889101A00B2A5
:10058000B0F5004F02DA10F5004F00DC00B20B6846
:100590008A60184408607047940000200000002022
:1005A00009480068406A094902B28889101A00B2F5
:1005B000B0F5004F02DA10F5004F00DC00B24B68D6
:1005C000CA60184448607047DC000020000000202A
:1005D000064800210160416005490968496A816057
:1005E00004490968496AC1607047000000000020A2
:1005F00094000020DC00002072B6FEE710B590F8F1
:1006000021100022022905D00421816380F82020D6
:10061000012010BD01680B6823F00E030B60016818
:100620000B6823F001030B6090F84030C46B01218C
:1006300001FA03F3636080F8211080F8202010464F
:1006400010BD000010B590F821100024022903D03D
:100650000421816301243DE001680A6822F00E0252
:100660000A6001680A6822F001020A601A4A0168F9
:10067000914201D1012121E0174A1432914201D166
:1006800010211BE0144A2832914201D1891515E04E
:10069000114A3C32914201D189140FE00E4A503286
:1006A000914202D14FF4803108E00B4A643291420A
:1006B00002D14FF4801101E04FF08071064A083AF0
:1006C0005160012180F82110002180F82010416B39
:1006D00001B18847204610BD080002402DE9F84FBF
:1006E000DFF8B8910024A9F1040B23460F2709F184
:1006F000040AABF1040EC9E00125A5402A40AA4234
:100700007DD1674ED1F804C0ACEB0608B44532D0B9
:1007100014DCBCF1030F3AD009DCBCF1000F2AD085
:10072000BCF1010F1CD0BCF1020F31D11DE0BCF1B6
:10073000110F17D0BCF1120F2AD119E0B8F5881F9C
:1007400019D006DCB8F5803F15D0B8F5801F1FD151
:1007500011E0B8F5001F0ED0B8F5041F18D10AE05B
:10076000CB6815E0CB681B1D12E0CB6808330FE0A7
:10077000CB680C330CE08B682BB1012B4FF00803D6
:1007800003D0456104E0042302E0056100E000239A
:10079000FF2A01D8064601E000F104064FEA84056D
:1007A00001D9A5F12005D6F8008007FA05FC28EA52
:1007B0000C0803FA05F548EA0508C6F800804D68FC
:1007C000ED0062D5374DAE6946F00106AE61AD6908
:1007D00024F0030605F001050095334D06EB050CEA
:1007E000DCF80850A607360F07FA06F825EA0805D0
:1007F000DFF8B880404503D14FF0000817E044E02F
:10080000DFF8AC80404502D14FF001080FE0DFF87F
:10081000A480404502D14FF0020808E0DFF898803C
:10082000404502D14FF0030801E04FF0040808FAF8
:1008300006F848EA0508CCF808804D68D9F8006049
:10084000ED024D4601D5164300E096432E604D68FB
:10085000DAF80060AD02554601D5164300E0964334
:100860002E604D68DBF80060AD035D4601D5164390
:1008700000E096432E604D68DEF80060ED0375469B
:1008800001D5164300E096432E60641C0D682A468D
:10089000E5407FF431AFBDE8F88F00000804014067
:1008A000000011100010024000000140000801404B
:1008B000000C014000100140001401408068084015
:1008C00000D0012070470AB1016170470904FBE7BD
:1008D00001488068704700002400002002488168B9
:1008E000027811448160704724000020074810B549
:1008F000016841F010010160032000F075F80F203D
:1009000000F006F800F024F8002010BD002002409E
:1009100070B50D4D04464FF47A712878B1FBF0F0B4
:100920000A490968B1FBF0F000F0DCFA48B9102C74
:1009300007D200222146501E00F036F800206C60DD
:1009400070BD012070BD0000240000203000002098
:100950000C4808B5816941F001018161816901F0AC
:1009600001010091C16941F08051C161C06900F08D
:10097000805000900448416821F0E06141F000712E
:10098000416008BD0010024000000140002809DB62
:1009900000F01F02012191404009800000F1E02099
:1009A000C0F8001170470000F0B40E4B1B680C46F5
:1009B000C3F30223C3F10705042D00D90425191D33
:1009C000072901D2002300E0DB1E012606FA05F10B
:1009D000491E214099409E40761E16403143F0BC8E
:1009E00002F09AB80CED00E0064900F00702086832
:1009F0004FF6FF03184040EA0220034A1043086004
:100A0000704700000CED00E00000FA052DE9F0470A
:100A10000F46050061D0434E306800F00700B84231
:100A200009D2306820F0070038433060306800F0A9
:100A30000700B84251D128683B4C810712D54007C6
:100A400003D5606840F4E06060602878000703D553
:100A5000606840F4605060606068A96820F0F00051
:100A6000084360602878C00728D06868012810D043
:100A70002168022810D0890700292EDA616821F048
:100A8000030101436160FFF723FF804641F288398B
:100A90000DE021688903EFE78901EDE7FFF718FF13
:100AA000A0EB0801494502D90320BDE8F087606842
:100AB000696800F00C00B0EB810FEFD1306800F0F6
:100AC0000700B8420BD9306820F007003843306087
:100AD000306800F00700B84201D00120E5E728782F
:100AE000400705D56068E96820F4E060084360606D
:100AF0002878000706D56068296920F4605040EA2C
:100B0000C100606000F038F86168084AC1F3031161
:100B1000515CC8400649086006480068FFF7F8FEC7
:100B20000020C2E700200240001002402B320008E3
:100B3000300000202800002004480549006849686A
:100B4000044AC1F30221515CC840704730000020C4
:100B5000001002403B32000804480549006849681B
:100B6000044AC1F3C221515CC840704730000020E4
:100B7000001002403B3200080E4A51680E4801F056
:100B80000C03042B11D0082B0FD10C48C1F3834365
:100B9000C903C05C0AD55168084AC1F34041921E9E
:100BA000515C054A5043B0FBF1F07047044948439B
:100BB000704700000010024000127A001B3200084B
:100BC00000093D002DE9F84F040070D02078C04D99
:100BD000C00749D06868C0F38100012807D0686861
:100BE000C0F38100022809D16868C00306D52868CF
:100BF000800339D560680028E7D035E06068B0F53B
:100C0000803F0BD010B1B0F5A02F11D0286820F490
:100C100080302860286820F4802002E0286840F4B2
:100C200080302860606890B1FFF752FE06460AE007
:100C3000286840F480202860F0E700BFFFF748FEF6
:100C4000801B642873D828688003F7D50CE0FFF771
:100C50003FFE064605E000BFFFF73AFE801B642812
:100C6000F0D828688003F7D420789A4E80074FF098
:100C700001094FF0000839D5686810F00C0F07D053
:100C80006868C0F38100022809D16868C00306D4EF
:100C90002868800714D52069012808D110E0206950
:100CA000B0B1C6F80090FFF713FE074605E00AE171
:100CB000FFF70EFEC01B0228C4D828688007F7D5AE
:100CC0002868616920F0F80040EAC10028600DE062
:100CD000C6F80080FFF7FCFD074604E0FFF7F8FDCB
:100CE000C01B022823D828688007F7D42078000783
:100CF0002CD57948A169D9B1C0F80090FFF7E8FD7B
:100D0000074604E0FFF7E4FDC01B02280FD8686A1D
:100D10008007F7D571484FF4FA510068B0FBF1F045
:100D2000009000BF0098411E0091FAD20EE080E0D2
:100D3000C0F80080FFF7CCFD074604E0FFF7C8FDD0
:100D4000C01B022875D8686A8007F7D4207840074E
:100D500060D5E8690027C00008D4E86940F08050F9
:100D6000E861E869012700F0805000905C48016864
:100D7000C90513D40168834641F480710160FFF70F
:100D8000A7FD824606E000BFFFF7A2FDA0EB0A0028
:100D900064284ED8DBF80000C005F5D5E0680128CE
:100DA0000AD008B1052813D0286A20F00100286273
:100DB000286A20F0040002E0286A40F0010028625E
:100DC000E06841F2883B98B1FFF782FD82460BE074
:100DD000286A40F004002862EEE700BFFFF778FDC4
:100DE000A0EB0A0159455AD8286A8007F6D50CE0CD
:100DF000FFF76EFD824605E0FFF76AFDA0EB0A01F2
:100E000059454CD8286A8007F6D41FB1E86920F00C
:100E10008050E861E06988B36968C1F38101022903
:100E200044D00228C6F8608004D0FFF751FD044684
:100E300038E034E0FFF74CFD074604E0FFF748FDDB
:100E4000C01B02282BD828688001F7D4206AB0F58F
:100E5000803F05D16868A16820F4003008436860CD
:100E6000D4E908010843696821F4741108436860F3
:100E7000C6F86090FFF72CFD044606E025E000BFB1
:100E8000FFF726FD001B022809D828688001F7D546
:100E90001BE000BFFFF71CFD001B022802D9032046
:100EA000BDE8F88F28688001F4D40EE00128F7D05F
:100EB0006868226A00F48031914204D1616A00F4CA
:100EC0007010884201D00120EAE70020E8E7000026
:100ED00000100240000042428004424230000020E4
:100EE0000070004010B5401EB0F1807F01D301209A
:100EF00010BD4FF0E02460610F21601701F00CFE7F
:100F00000020A06107202061002010BD10B590F8DE
:100F10003C20012A22D0012280F83C20CA688C683B
:100F200022F4407222434C6822F4806222430C680F
:100F300022F4006222430C6922F4805222434C695D
:100F400022F400522243C969002322F480420A435A
:100F500001684A6480F83C30002010BD022010BDBA
:100F600070B590F83C20012A26D0012480F83C403E
:100F7000022280F83D2003685A689D6822F07006BE
:100F80000A6832435A600D4B02689A4208D0B2F1A7
:100F9000804F05D00A4B9A4202D00A4B9A4204D1A4
:100FA000496825F080031943916080F83D40002195
:100FB00080F83C10084670BD022070BD002C014036
:100FC000000400400008004010B5040003D094F86D
:100FD0003D0010B107E0012010BD002084F83C0066
:100FE000204600F01FF8022084F83D00211D2068F3
:100FF00001F048F9012084F8460084F83E0084F8A6
:101000003F0084F8400084F8410084F8420084F8EE
:10101000430084F8440084F8450084F83D00002033
:1010200010BD000008B50C4A01680C48914207D178
:10103000816941F400618161806900F4006009E028
:10104000074A914207D1C16941F00401C161C069F9
:1010500000F00400009008BD002C01400010024088
:101060000008004070B5044690F83C0000250128B7
:1010700017D0012684F83C60022084F83D002068E7
:10108000826822F0770222F47F428260086850284A
:1010900038D00DDC20284FD005DC90B3102811D1BA
:1010A0004AE0022070BD302846D040280AD13BE0FB
:1010B00060282FD070280DD0B0F5805F03D0B0F538
:1010C000005F12D0012584F83D60002084F83C00C8
:1010D000284670BDCB68D1E90121206801F01BF9D9
:1010E0002068816841F0770109E0CB68D1E90121EE
:1010F000206801F010F92068816841F48041816026
:10110000E1E719E0CA684968206801F0B9F950219F
:10111000206806E0CA684968206801F0C2F96021C9
:10112000206801F002F9CEE7CA684968206801F03A
:10113000A7F940212068F4E7226801461046F0E74D
:101140002DE9F0410D46040003D094F83D0018B19C
:1011500008E00120BDE8F081002084F83C00204632
:1011600000F040F8022084F83D002068816844F2D5
:10117000070291438160211D206801F083F82268F5
:1011800090689169166A2B68AF69034340F2033097
:10119000814341EA0721A868EF6908434FF6FC4103
:1011A0008843E96840EA0720014328692F6A000163
:1011B00040EA0730084369686D6926F0220646EA6E
:1011C0000515294393602268906154F8460B01622B
:1011D000012004F81F09E0752076E0762077A075DD
:1011E0000020B7E7F0B585B000260096019602967C
:1011F000039601682D4801252D4F2E4CB1F1804FEB
:1012000023D02D4A91421ED1C16941F00201C16132
:10121000C16901F002010491816941F00801816115
:101220008069694600F00800049030200090029523
:101230003846FFF753FA606820F4406040F0E06001
:1012400040F40060606005B0F0BDC16941F001018B
:10125000C161C16901F001010491816941F004019A
:101260008161816901F004010491816941F0080103
:1012700081618069694600F0080004904FF40040E5
:10128000009002950D48FFF729FA0820CDE90006E5
:10129000694602953846FFF721FA606820F44070ED
:1012A00040F0E06040F48070CCE7000000100240A5
:1012B000000C014000000140000400400008014013
:1012C00070B590F83E60044690F83F5090F8423078
:1012D00090F84320022021B104290ED0012E1BD109
:1012E00014E0012E18D1012B16D184F83E0084F8A9
:1012F000420001220021206820E0012D0CD1012AAA
:101300000AD184F83F0084F8430014E0012D03D192
:10131000012B01D1012A01D0012070BD84F83E00CB
:1013200084F83F0084F8420084F843000122002141
:10133000206800F0E3FF01220421206800F0DEFFB6
:101340002068016841F001010160002070BD0000CB
:1013500000B585B000210091019102910391164BD7
:101360000268164802219A420FD1826942F00402B3
:1013700082618069039100F0040004904FF4706072
:10138000CDE9000169460E4811E00E4B9A4210D19A
:10139000826942F0080282618069039100F00800CE
:1013A00004904FF47070CDE9000169460648FFF7DC
:1013B00095F905B000BD0000002C0140001002406E
:1013C0000008014000080040000C014070B50446D0
:1013D00090F83C0000260D4601280FD0012084F82B
:1013E0003C006AB1042A1DD0082A2FD00C2A3FD015
:1013F0000126002084F83C00304670BD022070BDFC
:10140000206800F09BFF2068816941F0080181613C
:101410002068816921F004018161206881692A695D
:10142000114311E0206800F0B1FF2068816941F4A8
:10143000006181612068816921F480618161206897
:1014400081692A6941EA02218161D2E7206800F0BE
:10145000C9FF2068C16941F00801C1612068C16904
:1014600021F00401C1612068C1692A69114311E0BA
:10147000206800F0E3FF2068C16941F40061C161A8
:101480002068C16921F48061C1612068C1692A694D
:1014900041EA0221C161ACE710B5040003D094F821
:1014A0003D0010B107E0012010BD002084F83C0091
:1014B000204600F01EF8022084F83D00211D20681F
:1014C00000F0E0FE012084F8460084F83E0084F835
:1014D0003F0084F8400084F8410084F8420084F81A
:1014E000430084F8440084F8450084F83D0000205F
:1014F00010BD704710B50446022249B104290ED030
:10150000082913D094F84100012816D0012010BDFD
:1015100094F83E000128F9D184F83E200FE094F8B9
:101520003F000128F2D184F83F2008E094F8400001
:101530000128EBD184F8402001E084F84120012209
:10154000206800F0DBFE0F492068884203D1426C1E
:1015500042F4004242642068884208D0B0F1804FD3
:1015600005D00949884202D00849884204D18168DF
:1015700001F00701062903D0016841F00101016073
:10158000002010BD002C0140000400400008004075
:1015900070477047F8B5016804460868CA684B6927
:1015A00010F00F0F4FF0000559D003F0010602F4C0
:1015B0009077374365D0C10705D0D10503D5616C5D
:1015C00041F001016164410705D5D90703D0616C81
:1015D00041F002016164810705D5D90703D0616C30
:1015E00041F004016164010707D502F02001314395
:1015F00003D0616C41F008016164616C00293AD04C
:10160000800604D5900602D5204601F031F9206805
:101610004069616CC0F38010090700D460B32046B4
:1016200000F059FF20684069400621D52068143039
:1016300050E8001F21F0400140E80012002AF5D1D7
:10164000E06BA8B16D494163E06BFEF7FBFF00283A
:1016500011D0E06B416B01B0BDE8F0400847830654
:101660000FD593060DD52046BDE8F84001F000B92E
:101670002046FFF78EFFF8BD2046FFF78AFF65641E
:10168000F8BD266B2023012E7CD1C6067AD5D6065E
:1016900078D508684868009048694FF0020640060F
:1016A00040D5E16B086840680004000CE8D0A28DCA
:1016B0008242E5D9E085886920282DD020680C3049
:1016C00050E8001F21F4807140E80012002AF5D193
:1016D0002068143050E8001F21F0010140E800129A
:1016E000002AF5D12068143050E8001F21F0400195
:1016F00040E80012002AF5D184F8423025632068C2
:101700000C3050E8001F21F0100140E80012002AC0
:10171000F5D1E06BFEF772FF6663A08DE18D401A94
:1017200081B22AE0A08DE18D401A81B2E08D0028BF
:10173000A6D00029A4D022680C3252E8000F20F471
:10174000907042E80007002FF5D12068143050E86F
:10175000002F22F0010240E80027002FF5D184F885
:101760004230256320680C3050E8002F22F0100230
:1017700040E80023002BF5D166632046FFF708FF01
:10178000F8BDFFE705062BD5150629D594F84100CD
:101790002128F5D1A068B0F5805F01D12069B0B1F2
:1017A000206A411C2162216800784860E08C401E5C
:1017B0000004000CE084E3D12068C16821F08001BE
:1017C000C1602068C16841F04001C160D8E7206A6B
:1017D0000088C0F308004860206A801C2062E5E7AA
:1017E0004006CDD55006CBD5CA68204622F040022F
:1017F000CA6084F8413000F0FDF8C1E7C724000852
:1018000070B5040004D094F84100002510B106E042
:10181000012070BD84F84050204600F023F82420B9
:1018200084F841002068C16821F40051C16020465D
:1018300001F0AAF82068016921F490410161206853
:10184000416921F02A0141612068C16841F40051D9
:10185000C1606564202084F8410084F8420065631B
:10186000002070BD30B585B000240094019402942E
:1018700003940068184988422CD11848C16941F482
:101880008021C161C16901F480210491816941F025
:10189000080181618069124D00F0080004904FF446
:1018A0008060009002200190032003906946284642
:1018B000FEF714FFE814CDE90004694628460294B7
:1018C000FEF70CFF002211462720FFF76DF82720B6
:1018D000FFF75CF805B030BD004800400010024042
:1018E000000C014090F84230202B01D002207047BC
:1018F00021B11AB10023036301F0A2B8012070479F
:1019000070B50068104988421CD1104C0025104A5F
:1019100021780A2908D00D2906D060887F2808D2AE
:101920001154401C608005E0608818B1155400F027
:1019300003FE6580BDE87040054801220349803000
:10194000FFF7D0BF70BD000000480040200000201D
:101950006C0100202DE9F843044690F841009846B8
:1019600016460D46202802D00220BDE8F88385B136
:101970007EB100206064212084F84100FEF7A8FFBA
:10198000A6848146E684A0682027B0F5805F02D057
:1019900003E00120E9E7206910B12E4600250EE0A2
:1019A00000260CE08021204601F065F8A8B9C6B1F8
:1019B00016F8010B21684860E08C401EE084E08C42
:1019C0004B464FF00002CDF800800028EAD14FF0DE
:1019D0004001204601F04FF840B184F841700320E7
:1019E000C3E735F8020BC0F30800E3E784F8417061
:1019F0000020BAE77047FEE72DE9F04186B00024E9
:101A000025480094019402940394816941F02001D7
:101A10008161816901F020010491816941F0040133
:101A20008161816901F004010491816941F008013B
:101A300081618069194F00F0080004900022FF21A5
:101A40003846FEF740FFDFF858804FF46046012229
:101A500031464046FEF737FFFF200125CDE900055E
:101A60000220CDE9024069463846FEF737FE2803DA
:101A7000CDE90004694640460294FEF72FFE03209C
:101A8000CDE90240CDE9006569464046FEF726FEF5
:101A900006B0BDE8F08100000010024000080140DF
:101AA000000C014010B596B000240F9410941194CE
:101AB000129413941C2168461494FEF74AFB2021CB
:101AC00007A8FEF746FB3548334901604721C0E9C6
:101AD000011440F2E731C0E903148021C0E9054157
:101AE000FFF772FA08B1FEF787FD4FF480500F90B0
:101AF0000FA92A48FFF7B6FA08B1FEF77DFD27487F
:101B0000FFF7CAFC08B1FEF777FD139413A9234829
:101B10001494FFF725FA08B1FEF76EFD6020CDE9B9
:101B200000040294039404940594002269461B481F
:101B30000694FFF74BFC08B1FEF75EFD04226946F0
:101B40001648FFF743FC08B1FEF756FD0822694628
:101B50001248FFF73BFC08B1FEF74EFD0C22694628
:101B60000E48FFF733FC08B1FEF746FD07940894D2
:101B700009944FF400500A94CDE90B4007A9074897
:101B80000E94FFF7C3F908B1FEF736FD0348FFF7DF
:101B9000DFFB16B010BD0000002C01404C000020FF
:101BA00010B58CB024216846FEF7D3FA00241648FD
:101BB00009944FF080410A94C0E900144FF6FF7178
:101BC000C0E902418021046181610320CDE9000464
:101BD00001200621CDE902040491CDE905400794D6
:101BE000694609480894FFF7ABFA08B1FEF704FD0F
:101BF000099409A904480A94FFF7B2F9002801D012
:101C0000FEF7FAFC0CB010BD9400002010B58CB0AB
:101C100024216846FEF79DFA0024174809941549C7
:101C20000A94C0E900144FF6FF71C0E90241802117
:101C3000046181610320CDE9000401200621CDE982
:101C400002040491CDE90540079469460A480894C6
:101C5000FFF776FA08B1FEF7CFFC099409A9064808
:101C60000A94FFF77DF9002801D0FEF7C5FC0CB0FF
:101C700010BD000000040040DC00002010B58EB054
:101C800000240794089409940A940B941C21684634
:101C90000C94FEF75EFA2C482A4901604721C0E9FE
:101CA000011444F61F61C0E9031480218161FFF72C
:101CB0008BF908B1FEF7A0FC4FF48050079007A9FC
:101CC0002148FFF7CFF908B1FEF796FC1E48FFF751
:101CD000E3FB08B1FEF790FC0B940BA91A480C9497
:101CE000FFF73EF908B1FEF787FC6020009040F254
:101CF000DC50CDE901040022694613480494FFF743
:101D000065FB08B1FEF778FC042269460E48FFF730
:101D10005DFB08B1FEF770FC082269460A48FFF730
:101D200055FB08B1FEF768FC0C2269460648FFF730
:101D30004DFB08B1FEF760FC0348FFF709FB0EB04E
:101D400010BD000000080040240100200C4810B520
:101D50000A4901604FF4E1314160002181600C22A9
:101D6000C160C0E904128161C161FFF749FD00282B
:101D700003D0BDE81040FEF73FBC10BD0048004056
:101D8000EC0100204FF461728E280CD911467F3887
:101D90004843C11700EB5160C111914201DD10466B
:101DA00070470846704770280ED2C0F17F004FF48C
:101DB00061714843C11700EB5160C011904201DDD1
:101DC0000248704740427047002070477CFCFFFF8C
:101DD0002DE9F05F584C594D1E46174689468046FE
:101DE0006FF0950B4FF0000A96280BDD012211468B
:101DF0002046FEF768FD002202212046FEF763FD23
:101E0000404618E0D8454FF000024FF0010120464F
:101E100009DAFEF758FD012202212046FEF753FDA4
:101E2000C8F1000007E0FEF74EFD00220221204627
:101E3000FEF749FD504629684863B9F1960F0BDD5E
:101E4000012210212046FEF73EFD002220212046DF
:101E5000FEF739FD484618E0D9454FF000024FF033
:101E60001001204609DAFEF72EFD0122202120462E
:101E7000FEF729FDC9F1000007E0FEF724FD00226E
:101E800020212046FEF71FFD504629688863962FC3
:101E90000CDD012204212046FEF715FD0022082159
:101EA0002046FEF710FD2868C76319E05F454FF034
:101EB00000024FF00401204608DAFEF704FD01227B
:101EC00008212046FEF7FFFC784207E0FEF7FBFC06
:101ED000002208212046FEF7F6FC50462968C86318
:101EE000962E0DDD012240212046FEF7ECFC00225B
:101EF00080212046FEF7E7FC28680664BDE8F09FD5
:101F00005E454FF000024FF04001204608DAFEF730
:101F1000DAFC012280212046FEF7D5FC704207E062
:101F2000FEF7D1FC002280212046FEF7CCFC504673
:101F300029680864E2E70000000801404C00002026
:101F4000FEE7000010B5FEF7A3FA00210D48FFF7E9
:101F5000D1FA04210B48FFF7CDFA08210948FFF711
:101F6000C9FA0C210748FFF7C5FA3C210648FFF7DC
:101F7000A7F93C210548FFF7A3F9BDE81040FEF79B
:101F800027BB00004C00002094000020DC00002053
:101F9000FEE770B5034654074FF4C87003D5BDE89B
:101FA0007040FEF7AFBA920703D5BDE87040FEF768
:101FB000BBBA0846FFF7E6FE44421846FFF7E2FECA
:101FC0000146601A214400B24FF4617509B26C42B7
:101FD0000A460346A84201DD284602E0A04200DA94
:101FE0002046A94202DD29462A4603E0A14201DA41
:101FF00021462246AB4201DD2B4602E0A34200DA35
:102000002346BDE87040FFF7E3BE000070B50D4603
:102010000646FEF75DFC28494A68821A142A4AD30C
:102020004860F0060C4608D42078401DB4280BD830
:10203000C1B2002000F0C8F806E0700604D4207891
:10204000052801D3401FF3E7300608D46078401D0F
:10205000B4280BD8C1B2012000F0B6F806E0B006F3
:1020600004D46078052801D3401FF3E7E80608D4BC
:10207000A078401DB4280BD8C1B2022000F0A4F80B
:1020800006E0680604D4A078052801D3401FF3E7D2
:10209000280609D4E078401DB4280CD8BDE870406B
:1020A000C1B2032000F090B8A80604D4E078052857
:1020B00001D3401FF2E770BD100000202DE9FC4164
:1020C000064600208DF8040001208DF8000047032B
:1020D0001C4CC5034FF480582CE000BF9DF8000055
:1020E000304201D0012200E0002239462046FEF7AE
:1020F000EAFB002229462046FEF7E5FB102000F00F
:1021000061FF41462046FEF7D9FB30B19DF804003F
:102110009DF8001008438DF804000122294620464E
:10212000FEF7D1FB102000F04DFF9DF800004000AD
:102130008DF800009DF800000028CFD19DF8040024
:10214000BDE8FC81000C01407047704710B50021CC
:102150000A48FFF7CFF904210848FFF7CBF9082117
:102160000648FFF7C7F90C210448FFF7C3F900F050
:102170001FF8BDE8104002A000F0BEBC2401002002
:102180005B536572766F5D20496E697469616C6935
:102190007A65642C20616C6C20736572766F732095
:1021A000617420393020646567726565730D0A00BB
:1021B00010B500245A21204600F006F8641CE4B251
:1021C000042CF7D310BD000010B50B460446B4290B
:1021D00000D9B4234FF4FA605843B421B0FBF1F0B6
:1021E00000F5FA7081B2204600F006F80148035568
:1021F00010BD000010000020084A126838B1012804
:1022000007D0022807D0032800D11164704751631A
:10221000704791637047D16370470000240100202C
:10222000FEF75CBB30B58FB028216846FDF791FF03
:1022300014210AA8FDF78DFF01210804CDE9001043
:102240000024029402250491CDE907504FF4E010D8
:1022500009906846FEF7B6FC08B172B6FEE70F209B
:10226000CDE90A054FF48060CDE90C4002210AA8AF
:102270000E94FEF7CBFB002801D072B6FEE70FB03C
:1022800030BD7047F0B50268194B1A4C1A4D4FF02B
:102290008047984205D0B84203D0A04201D0A8425E
:1022A00003D122F070064A683243984205D0B84202
:1022B00003D0A04201D0A84203D122F44074CA68DE
:1022C00022434C6922F08002224302608A68C26283
:1022D0000A688262984201D1096901630121416162
:1022E0000169C90703D0016921F001010161F0BD55
:1022F000002C0140000400400008004010B501F02F
:102300001F030121046A99408C430462016A9A40C8
:102310001143016210BD10B5846842EA032224F41F
:102320007F440A432243826010BD826822F070021B
:102330000A4342F0070181607047000030B5036A2C
:10234000026A22F0010202624268846924F0730585
:102350000C682C4323F002058B682B430A4DA842DE
:102360000BD123F00805CB6822F440722B434D6952
:1023700023F0040315438A692A4342608461496853
:102380004163036230BD0000002C014030B5026A99
:10239000036A23F010030362436884690D6824F420
:1023A000E64444EA05248D6822F0200242EA051240
:1023B0000B4DA8420ED1CD6822F0800242EA0512F0
:1023C0004D6923F4406343EA85038D6922F040029E
:1023D00043EA85034360846149688163026230BDDA
:1023E000002C014030B5036A026A22F48072026256
:1023F0004268C46923F4007324F073050C682C430D
:102400008D6843EA05230C4DA8420ED1CD6823F414
:10241000006343EA05234D6922F4405242EA051263
:102420008D6923F4806342EA05124260C461496801
:10243000C163036230BD0000002C014030B5046A66
:10244000026A22F4805202624268C3690D6823F472
:10245000E64343EA05238D6824F4005444EA053436
:10246000064DA84204D14D6922F4804242EA851209
:102470004260C36149680164046230BD002C0140C0
:1024800010B5036A046A24F001040462846924F02C
:10249000F00444EA021423F00A020A43846102624F
:1024A00010BD10B5036A046A24F010040462846944
:1024B00023F0A00324F4704444EA023243EA0111F9
:1024C0008261016210BD10B5406A0021C185C184DE
:1024D000FFF75FF810BD01680C3151E8002F22F4BE
:1024E000907241E80023002BF5D10168143151E8C6
:1024F000002F22F0010241E80023002BF5D1016BEF
:10250000012909D101680C3151E8002F22F0100295
:1025100041E80023002BF5D1202180F84210002152
:1025200001637047012202490248FFF7DBB900004E
:1025300020000020EC01002030B5A1B052496846CF
:10254000FDF720FE51A16846FDF726FE18B150A107
:10255000FDF70AFE08B14FA079E056A10020FDF773
:102560001BFE04001DD054A1FDF7FEFDD8B154A1FF
:102570002046FDF7F9FD00285FD053A12046FDF766
:10258000F3FD00285DD052A12046FDF7EDFD0028A7
:102590005AD052A12046FDF7E7FD00285AD051A09D
:1025A00055E057A053E043A10020FDF7F5FD054697
:1025B00040A10020FDF7F0FD3DB130B1FDF70EFE6A
:1025C00004B2962C03DA962406E054A03FE04FF4C0
:1025D0006170844200DD044658A12846FDF7C4FD21
:1025E00080B157A12846FDF7BFFD88B155A1284607
:1025F000FDF7BAFD90B154A12846FDF7B5FD98B19D
:1026000052A024E02046FDF734FF214656A010E0FA
:102610002046FDF71EFF21465AA00AE02046FDF79E
:1026200071FF21465EA004E02046FDF77DFF2146B4
:1026300062A000F061FA21B030BDFDF729FF66A06D
:1026400005E000F077F9F6E7FDF7C2FF67A000F0BC
:1026500053FAF0E717A10020FDF79EFD48B1FDF702
:10266000BDFD10F0FF01664805D0012906D065A028
:10267000EDE76EA0EBE7017073A201E0017073A2B9
:1026800074A000F039FAD6E76C0100203A0000008F
:10269000434D44004552524F523A20496E76616C88
:1026A000696420636F6D6D616E6420666F726D6129
:1026B000740D0A002C0000004D4F5645000000002C
:1026C00053544F50000000005354415455530000E0
:1026D00052455345545F454E430000004D4F44451D
:1026E000000000004552524F523A20556E6B6E6FFB
:1026F000776E20636F6D6D616E640D0A00000000DF
:102700004552524F523A204E6F20636F6D6D616E8D
:102710006420747970650D0A000000004552524F24
:10272000523A20496E76616C6964204D4F564520BF
:10273000636F6D6D616E640D0A000000460000005D
:10274000420000004C000000520000004552524F71
:10275000523A20496E76616C6964206469726563DF
:1027600074696F6E0D0A00004F4B3A204D6F766909
:102770006E6720666F7277617264206174202564D1
:102780000D0A00004F4B3A204D6F76696E6720624C
:1027900061636B776172642061742025640D0A00A7
:1027A0004F4B3A205475726E696E67206C65667483
:1027B0002061742025640D0A000000004F4B3A2070
:1027C0005475726E696E67207269676874206174EF
:1027D0002025640D0A0000004F4B3A20436172200F
:1027E00073746F707065640D0A0000004F4B3A20DF
:1027F000456E636F6465722072657365740D0A00BF
:10280000180000204552524F523A20496E76616CB2
:102810006964206D6F64652028303D5053322C2050
:10282000313D55415254290D0A0000004552524F86
:10283000523A204E6F206D6F646520737065636936
:10284000666965640D0A00005053320055415254C8
:10285000000000004F4B3A204D6F64652073657493
:1028600020746F20256420282573290D0A0000009C
:1028700008B590F84210222901D0022008BD8268D4
:102880004FF480539A4201D1016921B1816A9A4281
:102890001BD04AB10AE00268816A5268C2F308029A
:1028A0000A80816A891C08E0026972B10268526874
:1028B00002F07F020A70816A491C8162C18D491E43
:1028C0000904090CC18503D01BE002685268F1E7D6
:1028D0000168CA6822F02002CA600168CA6822F44E
:1028E0008072CA6001684A6922F001024A612021AF
:1028F00080F8421000214163026B012A03D0FEF7E9
:10290000FFFF002008BD016301680C3151E8002F72
:1029100022F0100241E80023002BF5D101680A687B
:10292000D20602D50A6849680091818DFEF730FE13
:10293000E7E7000010B5FDF71BFE0446FDF730FE8B
:102940000246044821460378BDE8104002A000F08A
:10295000D3B80000180000205354415455533A2076
:102960004C656674456E633D256C642C2052696726
:102970006874456E633D256C642C204D6F64653D25
:1029800025640D0A0000000070B504460068016966
:10299000E26821F44051114301612169A0680843B4
:1029A000616908432168CA6841F20C639A43024393
:1029B000CA6020684169A26921F4407111434161F4
:1029C0001E492068884202D1FEF7C6F801E0FEF7F2
:1029D000B3F800EBC00101EB0012606864218000D5
:1029E000B2FBF0F3B3FBF1F36FF018067343B2FBE5
:1029F000F0F5B2FBF0F605EB8305322303EB05158A
:102A0000B5FBF1F5B6FBF1F605F0F00505EB0615A3
:102A1000B2FBF0F6B2FBF0F0B0FBF1F06FF0180291
:102A2000504306EB800003EB0010B0FBF1F021688F
:102A300000F00F002844886070BD0000003801409D
:102A400081628285C28500214164222180F8421082
:102A5000016921B10168CA6842F48072CA600168E4
:102A60004A6942F001024A610068C16841F02001F0
:102A7000C160002070472DE9F843984617460D467F
:102A80000446089E24E0701C22D0FDF721FFA0EB35
:102A90000800B0421AD8CEB12068C168490717D5DE
:102AA000802D15D0402D13D00168C94309070FD4DC
:102AB00001680025406800902046FFF70CFD0820C3
:102AC000606484F840500120BDE8F8830320FBE7F0
:102AD0002068006835EA000004D00020B842D2D057
:102AE0000020F1E70120F9E70148FEF753BD00009F
:102AF000EC010020FEE700000FB4054B10B503A960
:102B0000044A029800F02CF810BC5DF814FB000099
:102B1000ED2F0008380000200907090E002804DB0B
:102B200000F1E02080F80014704700F00F0000F181
:102B3000E02080F8141D7047004870473C000020DA
:102B400002E008C8121F08C1002AFAD17047704776
:102B5000002001E001C1121F002AFBD170470000D4
:102B60002DE9FF4F8DB00F460546002606E02528CB
:102B70000BD0DDE90F1290476D1C761C28780028D9
:102B8000F5D111B03046BDE8F08F0024A246A14631
:102B90000122EC4900E0044315F8013F203B02FA12
:102BA00003F00842F7D128782A2810D06FF02F02BE
:102BB0002878A0F13001092914D80AEB8A0102EB28
:102BC000410144F0020400EB010A6D1CF0E701CF63
:102BD0005FEA000A03D544F40054CAF1000A44F045
:102BE00002046D1C28782E2817D115F8010F44F027
:102BF00004042A280ED06FF02F022878A0F13001AB
:102C000009290AD809EB890102EB410100EB01090E
:102C10006D1CF2E757F8049B6D1C28786C280FD0C8
:102C200006DC4C2817D068280DD06A2814D104E09F
:102C3000742810D07A280FD10DE044F400140AE073
:102C400044F4801401E044F440146978814202D1D4
:102C500004F580146D1C6D1C2A786E2A1FD00CDCC4
:102C6000632A31D004DC002A8BD0582A11D1A3E08A
:102C7000642A68D0692A0CD165E0732A2ED004DC5E
:102C80006F2A73D0702A04D19BE0752A6FD0782AFE
:102C90006ED01046DDE90F129047761C50E1C4F368
:102CA0000250022806D0032809D0042801CF09D0F9
:102CB000066045E101CFF117C0E9006140E101CFB5
:102CC00006803DE106703BE117F8040B8DF800002B
:102CD00000208DF80100EB46012003E057F804BB0B
:102CE0004FF0FF3061074FF0000102D40DE008F112
:102CF0000101884649450FDA8045F8DB1BF80810CA
:102D00000029F4D108E008F1010188468142FADB8C
:102D10001BF808100029F6D1DDE90F23AAEB080003
:102D20008146214600F036F9304400EB080604E005
:102D3000DDE90F121BF8010B9047B8F10108F7D23B
:102D400021464846F7E00A21C4F302534FF0000B36
:102D50000891022B04D001CFC117032B09D00AE040
:102D6000FF1D27F00707F7E8020108E032E01FE047
:102D700020E000B2C117042B01D140B2C117031EDD
:102D800071F1000307DA4FF0000CD0EB0C006CEB94
:102D900001012D2302E0230504D52B238DF82430D7
:102DA000012303E0E30701D02023F7E7984658E02A
:102DB0000A2110E010210EE010204FF0000B0890C7
:102DC0000CE010214FF0000B44F004044FF0080910
:102DD000089103E008214FF0000B0891C4F302535F
:102DE000022B04D001CF0021032B06D006E0FF1DEB
:102DF00027F00707F7E8020103E080B2042B00D1B7
:102E0000C0B24FF0000823072BD5702A07D0DDF899
:102E100020C08CF0100C5CEA0B0C05D00EE04023B7
:102E20008DF82430012308E050EA010306D0302356
:102E30008DF824308DF8252002239846DDF820C037
:102E40008CF0080C5CEA0B0C0BD150EA010301D1A9
:102E5000630706D530238DF824304FF00108A9F11F
:102E60000109582A04D038A20B9208AA0A920BE052
:102E70003AA2F9E75B46089AFDF7BDF90B9B9B5C0C
:102E80000A9A521E0A92137050EA0102F2D10A986D
:102E9000ADEB000000F1200B600702D524F4803474
:102EA00001E04FF00109D94502DDA9EB0B0000E07C
:102EB000002000EB0B0141440890AAEB010AE0035B
:102EC00006D4DDE90F232146504600F063F806449E
:102ED0004FF0000908E009A911F80900DDE90F1217
:102EE000904709F10109761CC145F4DBE0030CD5DC
:102EF000DDE90F232146504600F04CF8064404E07B
:102F0000DDE90F1230209047761C0899481E089082
:102F10000029F5DC08E00A980A990078491C0A9112
:102F2000DDE90F129047761CBBF10001ABF1010BFC
:102F3000F1DC21465046DDE90F2300F019F8064484
:102F40006D1C1BE609280100303132333435363729
:102F500038396162636465660000000030313233E5
:102F60003435363738394142434445460000000085
:102F70002DE9F041044600251E461746880404D476
:102F800005E039462020B0476D1C641EF9D528465F
:102F9000BDE8F0812DE9F041044600251E4690462B
:102FA000C80301D5302700E02027880404D505E0B8
:102FB00041463846B0476D1C641EF9D52846BDE829
:102FC000F08100000649074A0968B1FBF2F141436C
:102FD0000548426843689B1A8B42FBD37047000048
:102FE0003000002040420F00001000E013B54FF603
:102FF000FF73012269460248FEF7ACFC00981CBD35
:10300000EC010020FDF772FCFFF70CF9FEF7F4FC71
:10301000FEF748FDFEF7C4FDFEF7F8FDFEF796FE4D
:10302000FEF72CFEFDF7D4F9FEF78CFFFFF78EF8C4
:10303000FFF778FA2FA0FFF75FFD38A0FFF75CFDE0
:1030400040A0FFF759FD484F3878002833D047A1FA
:1030500048A0FFF751FD4AA0FFF74EFD4FA0FFF734
:103060004BFD53A0FFF748FDDFF8FC8000252E46FE
:1030700008F10108FDF72CFC044638780028F9D146
:10308000A01B1428F6D338482646401CFDF7ACF99F
:1030900098F80000732810D041280ED0FDF7F8F9F9
:1030A000601BB0F5FA6FE5D3254698F8001043A0F1
:1030B000FFF722FDDEE74DA1CAE798F8012098F856
:1030C000061098F80500FEF764FF98F8021098F8CB
:1030D0000100FEF79BFF601BB0F5FA7FCAD32546BF
:1030E00098F8003098F8062098F8051040A0FFF7EF
:1030F00003FDBFE70D0A3D3D3D3D3D3D3D3D3D3DB1
:103100003D3D3D3D3D3D3D3D3D3D3D3D3D3D3D3DEF
:103110003D3D3D3D3D3D3D0D0A000000202050530A
:10312000322048796272696420436172202B2053F7
:103130006572766F20436F6E74726F6C20200D0A7B
:10314000000000003D3D3D3D3D3D3D3D3D3D3D3DA3
:103150003D3D3D3D3D3D3D3D3D3D3D3D3D3D3D3D9F
:103160003D3D3D3D3D0D0A001800002055415254A3
:10317000000000004D6F64653A2025730D0A0000C1
:103180004D6F746F723A203478204D6563616E75AF
:103190006D20576865656C730D0A00005365727683
:1031A0006F3A203478204D47393936520D0A0000E5
:1031B0005265616479210D0A0D0A00005B5053329B
:1031C0005D204E6F20636F6E74726F6C6C65722041
:1031D000646574656374656420284D6F64653A3076
:1031E0007825303258290D0A000000005053320073
:1031F0005B5053325D204C4A282533642C253364C0
:1032000029204D6F64653A3078253032580D0A0018
:103210000142000000000000000102020304050654
:103220000708090A0B0C0D0E0F101000000000001B
:103230000000000102030406070809000000000165
:103240000203040040404040404040404041414172
:10325000414140404040404040404040404040406C
:103260004040404005020202020202020202020243
:103270000202020220202020202020202020020202
:103280000202020202909090909090101010101084
:10329000101010101010101010101010101010023C
:1032A00002020202028888888888880808080808BC
:1032B0000808080808080808080808080808080294
:1032C0000202024044320008E832000800000020F8
:1032D00040000000402B0008283300084000002078
:1032E000F8050000502B000800000000000000005E
:1032F00000000000000000005A5A5A5A0000000066
:1033000000000000000000000000000001000000BC
:10331000100000000000000000127A000000000011
:083320000000000000000000A5
:04000005080000ED02
:00000001FF
