:020000040800F2
:10000000E006002089010008A711000889100008F7
:10001000A51100088F020008E51300080000000089
:10002000000000000000000000000000AB1100080C
:100030009102000800000000A9110008AD1100089D
:10004000A3010008A3010008A3010008A301000800
:10005000A3010008A3010008A3010008A3010008F0
:10006000A3010008A3010008A3010008A3010008E0
:10007000A3010008A3010008A3010008A3010008D0
:10008000A3010008A3010008A3010008CD13000884
:10009000D9130008A3010008A3010008A301000868
:1000A000A3010008A3010008A3010008A3010008A0
:1000B000A3010008A3010008A3010008A301000890
:1000C000A3010008A3010008A3010008A301000880
:1000D000A3010008A3010008A3010008A301000870
:1000E000A3010008A3010008A301000800F002F822
:1000F00000F03AF80AA090E8000C82448344AAF188
:100100000107DA4501D100F02FF8AFF2090EBAE885
:100110000F0013F0010F18BFFB1A43F0010318473B
:100120002013000040130000103A24BF78C878C1A3
:10013000FAD8520724BF30C830C144BF04680C60ED
:10014000704700000023002400250026103A28BF35
:1001500078C1FBD8520728BF30C148BF0B60704739
:100160001FB51FBD10B510BD00F058F81146FFF7C0
:10017000F7FF01F048F900F076F803B4FFF7F2FF5B
:1001800003BC00F07DF8000009488047094800479B
:10019000FEE7FEE7FEE7FEE7FEE7FEE7FEE7FEE737
:1001A000FEE7FEE704480549054A064B7047000094
:1001B0000F120008ED000008E0000020E00600201B
:1001C000E0020020E00200204FF0000200B51346DC
:1001D00094469646203922BFA0E80C50A0E80C5067
:1001E000B1F12001BFF4F7AF090728BFA0E80C5018
:1001F00048BF0CC05DF804EB890028BF40F8042B11
:1002000008BF704748BF20F8022B11F0804F18BF7D
:1002100000F8012B7047704770477047754600F033
:100220002BF8AE4605006946534620F00700854688
:1002300018B020B5FFF7B6FFBDE820404FF000062C
:100240004FF000074FF000084FF0000B21F00701BE
:10025000AC46ACE8C009ACE8C009ACE8C009ACE801
:10026000C0098D46704710B50446AFF300802046A4
:10027000BDE81040FFF781BF0048704780000020B4
:1002800001491820ABBEFEE7260002007047FEE7DA
:10029000704772B6FEE770472DE9F05F05460068CB
:1002A00000244669D0F804908768D0F80CB0D0F8E4
:1002B00010A0D0F81880F10748D0F90714D0012118
:1002C0008160B80703D5284600F0BEF90CE0780736
:1002D00002D54FF4006407E0380702D54FF480548C
:1002E00002E0284600F0AFF9F80516D529684FF46A
:1002F00080708860B80503D5284600F0A7F90CE0A7
:10030000780502D544F4005407E0380502D544F4DA
:10031000804402E0284600F098F9F80316D52968D1
:100320004FF480308860B80303D5284600F090F978
:100330000CE0780302D544F4004407E0380302D50A
:1003400044F4803402E0284600F081F9300707D5F4
:100350005FEACB6004D52968102044F40074C860BB
:1003600070074FF0080707D55FEA0B7004D52868BF
:10037000C760284600F062F9B00706D52868C06853
:10038000800702D0284600F05AF9700607D55FEAC8
:10039000CA6004D52968102044F480640861B0065E
:1003A00007D55FEA0A7004D528680761284600F07F
:1003B00047F9F00606D528680069800702D028466C
:1003C00000F03FF9B00308D55FEAC96005D5296898
:1003D00010204860284600F035F9F00307D55FEAA1
:1003E000097004D528684760284600F032F93004C7
:1003F00046D55FEA497040D5F00504D55FEAC8707C
:1004000001D044F00104B00504D55FEA887001D53D
:1004100044F00204700504D55FEA487001D544F049
:100420000404300529D518F0700F26D008F07000AC
:10043000402815D006DC102809D020280AD0302802
:1004400016D10AE050280ED0602811D10EE044F0F9
:1004500008040DE044F010040AE044F0200407E032
:1004600044F0400404E044F0800401E044F480746B
:100470002868816921F07001816129680420486041
:10048000002C05D0686A204368622846FFF703FF06
:10049000BDE8F09F70B5040003D094F8200010B1BF
:1004A00004E0012070BD204600F082F82068016859
:1004B00041F00101016000F0BDF90546052604E0A8
:1004C00000F0B8F9401B0A2811D820684068C0071E
:1004D000F6D02068016821F00201016000F0AAF95D
:1004E00005460BE000F0A6F9401B0A2806D9606A11
:1004F00040F40030606284F82060D2E720684068F1
:100500008007EFD4207E0128206801683DD021F0CB
:1005100080010160607E01282068016838D021F0E8
:1005200040010160A07E01282068016833D021F0DD
:1005300020010160E07E0128206801682ED041F092
:1005400010010160207F01282068016829D021F076
:1005500008010160607F01282068016824D021F033
:1005600004010160D4E902010843D4E904121143F3
:1005700008436168491E08432168C8610020606221
:10058000012084F82000002070BD41F08001C0E708
:1005900041F04001C5E741F02001CAE721F0100118
:1005A000CFE741F00801D4E741F00401D9E70000AA
:1005B00010B586B00021009101910291039100686D
:1005C0001B49884232D11B48C16941F00071C161A9
:1005D000C16901F000710491816941F004018161F8
:1005E0008069154C00F0040004904FF40060009006
:1005F0006946204600F02EF8A014009002200190D9
:10060000032003906946204600F024F8002211469A
:10061000132000F07BF9132000F06AF90022114644
:10062000142000F073F9142000F062F906B010BD38
:10063000006400400010024000080140704770470D
:1006400070477047704770477047704770477047F2
:10065000704770472DE9F84FDFF8B8910024A9F1F1
:10066000040B23460F2709F1040AABF1040EC9E07D
:100670000125A5402A40AA427DD1674ED1F804C089
:10068000ACEB0608B44532D014DCBCF1030F3AD011
:1006900009DCBCF1000F2AD0BCF1010F1CD0BCF169
:1006A000020F31D11DE0BCF1110F17D0BCF1120FB8
:1006B0002AD119E0B8F5881F19D006DCB8F5803FBB
:1006C00015D0B8F5801F1FD111E0B8F5001F0ED06E
:1006D000B8F5041F18D10AE0CB6815E0CB681B1DE4
:1006E00012E0CB6808330FE0CB680C330CE08B686A
:1006F0002BB1012B4FF0080303D0456104E0042324
:1007000002E0056100E00023FF2A01D8064601E06F
:1007100000F104064FEA840501D9A5F12005D6F8B9
:10072000008007FA05FC28EA0C0803FA05F548EAF8
:100730000508C6F800804D68ED0062D5374DAE69FA
:1007400046F00106AE61AD6924F0030605F001052F
:100750000095334D06EB050CDCF80850A607360F64
:1007600007FA06F825EA0805DFF8B880404503D106
:100770004FF0000817E044E0DFF8AC80404502D1BC
:100780004FF001080FE0DFF8A480404502D14FF0A0
:10079000020808E0DFF89880404502D14FF00308D6
:1007A00001E04FF0040808FA06F848EA0508CCF81A
:1007B00008804D68D9F80060ED024D4601D516431A
:1007C00000E096432E604D68DAF80060AD025546B1
:1007D00001D5164300E096432E604D68DBF80060BB
:1007E000AD035D4601D5164300E096432E604D688B
:1007F000DEF80060ED03754601D5164300E0964330
:100800002E60641C0D682A46E5407FF431AFBDE8D8
:10081000F88F000008040140000011100010024091
:100820000000014000080140000C014000100140A0
:10083000001401400148806870470000000000205B
:1008400002488168027811448160704700000020EE
:10085000074810B5016841F010010160032000F065
:1008600075F80F2000F006F800F024F8002010BD05
:100870000020024070B50D4D04464FF47A7128787F
:10088000B1FBF0F00A490968B1FBF0F000F0BCFAE6
:1008900048B9102C07D200222146501E00F036F82D
:1008A00000206C6070BD012070BD000000000020C1
:1008B0000C0000200C4808B5816941F001018161FC
:1008C000816901F001010091C16941F08051C1616C
:1008D000C06900F0805000900448416821F0E06158
:1008E00041F00071416008BD00100240000001406D
:1008F000002809DB00F01F0201219140400980001F
:1009000000F1E020C0F8001170470000F0B40E4B79
:100910001B680C46C3F30223C3F10705042D00D95D
:100920000425191D072901D2002300E0DB1E012642
:1009300006FA05F1491E214099409E40761E164058
:100940003143F0BC00F04FBD0CED00E0064900F073
:10095000070208684FF6FF03184040EA0220034AE6
:1009600010430860704700000CED00E00000FA053D
:100970002DE9F0470F46050061D0434E306800F086
:100980000700B84209D2306820F0070038433060D1
:10099000306800F00700B84251D128683B4C81070D
:1009A00012D5400703D5606840F4E06060602878A5
:1009B000000703D5606840F4605060606068A96813
:1009C00020F0F000084360602878C00728D06868ED
:1009D000012810D02168022810D0890700292EDABA
:1009E000616821F0030101436160FFF723FF804646
:1009F00041F288390DE021688903EFE78901EDE7CD
:100A0000FFF718FFA0EB0801494502D90320BDE814
:100A1000F0876068696800F00C00B0EB810FEFD1DF
:100A2000306800F00700B8420BD9306820F00700AA
:100A300038433060306800F00700B84201D0012030
:100A4000E5E72878400705D56068E96820F4E060AC
:100A5000084360602878000706D56068296920F49B
:100A6000605040EAC100606000F018F86168084A10
:100A7000C1F30311515CC84006490860064800688C
:100A8000FFF7F8FE0020C2E70020024000100240FD
:100A90002E1400080C000020040000200E4A5168AB
:100AA0000E4801F00C03042B11D0082B0FD10C4879
:100AB000C1F38343C903C05C0AD55168084AC1F336
:100AC0004041921E515C054A5043B0FBF1F0704723
:100AD00004494843704700000010024000127A00A9
:100AE0001E14000800093D002DE9F84F040070D0E5
:100AF0002078C04DC00749D06868C0F38100012844
:100B000007D06868C0F38100022809D16868C00373
:100B100006D52868800339D560680028E7D035E01D
:100B20006068B0F5803F0BD010B1B0F5A02F11D0A8
:100B3000286820F480302860286820F4802002E0B3
:100B4000286840F480302860606890B1FFF772FE3A
:100B500006460AE0286840F480202860F0E700BFDD
:100B6000FFF768FE801B642873D828688003F7D5D8
:100B70000CE0FFF75FFE064605E000BFFFF75AFEF8
:100B8000801B6428F0D828688003F7D420789A4E18
:100B900080074FF001094FF0000839D5686810F060
:100BA0000C0F07D06868C0F38100022809D168687B
:100BB000C00306D42868800714D52069012808D10D
:100BC00010E02069B0B1C6F80090FFF733FE074689
:100BD00005E00AE1FFF72EFEC01B0228C4D82868F2
:100BE0008007F7D52868616920F0F80040EAC10065
:100BF00028600DE0C6F80080FFF71CFE074604E001
:100C0000FFF718FEC01B022823D828688007F7D4F6
:100C1000207800072CD57948A169D9B1C0F8009097
:100C2000FFF708FE074604E0FFF704FEC01B02289A
:100C30000FD8686A8007F7D571484FF4FA510068F9
:100C4000B0FBF1F0009000BF0098411E0091FAD275
:100C50000EE080E0C0F80080FFF7ECFD074604E0FE
:100C6000FFF7E8FDC01B022875D8686A8007F7D433
:100C70002078400760D5E8690027C00008D4E869FB
:100C800040F08050E861E869012700F08050009052
:100C90005C480168C90513D40168834641F480713A
:100CA0000160FFF7C7FD824606E000BFFFF7C2FD07
:100CB000A0EB0A0064284ED8DBF80000C005F5D58B
:100CC000E06801280AD008B1052813D0286A20F06E
:100CD00001002862286A20F0040002E0286A40F03F
:100CE00001002862E06841F2883B98B1FFF7A2FD5D
:100CF00082460BE0286A40F004002862EEE700BF5D
:100D0000FFF798FDA0EB0A0159455AD8286A8007D9
:100D1000F6D50CE0FFF78EFD824605E0FFF78AFD71
:100D2000A0EB0A0159454CD8286A8007F6D41FB1B8
:100D3000E86920F08050E861E06988B36968C1F330
:100D40008101022944D00228C6F8608004D0FFF750
:100D500071FD044638E034E0FFF76CFD074604E01F
:100D6000FFF768FDC01B02282BD828688001F7D444
:100D7000206AB0F5803F05D16868A16820F4003092
:100D800008436860D4E908010843696821F47411D4
:100D900008436860C6F86090FFF74CFD044606E023
:100DA00025E000BFFFF746FD001B022809D8286890
:100DB0008001F7D51BE000BFFFF73CFD001B0228B8
:100DC00002D90320BDE8F88F28688001F4D40EE032
:100DD0000128F7D06868226A00F48031914204D17A
:100DE000616A00F47010884201D00120EAE7002017
:100DF000E8E7000000100240000042428004424246
:100E00000C0000200070004010B5401EB0F1807F43
:100E100001D3012010BD4FF0E02460610F21601765
:100E200000F0E1FA0020A06107202061002010BD41
:100E300010B590F83C20012A22D0012280F83C20F5
:100E4000CA688C6822F4407222434C6822F48062A3
:100E500022430C6822F4006222430C6922F480527F
:100E600022434C6922F400522243C969002322F430
:100E700080420A4301684A6480F83C30002010BD7B
:100E8000022010BD70B590F83C20012A26D0012424
:100E900080F83C40022280F83D2003685A689D6833
:100EA00022F070060A6832435A600D4B02689A427B
:100EB00008D0B2F1804F05D00A4B9A4202D00A4BBB
:100EC0009A4204D1496825F080031943916080F863
:100ED0003D40002180F83C10084670BD022070BDE6
:100EE000002C0140000400400008004000B585B01F
:100EF0000021009101910291039100680B49884201
:100F000012D10B48816941F0040181618069694611
:100F100000F0040004904FF48070009002200190D3
:100F200003900448FFF796FB05B000BD002C01407C
:100F3000001002400008014070B5044690F83C00E3
:100F400000260D4601280FD0012084F83C006AB12C
:100F5000042A1DD0082A2FD00C2A3FD001260020B9
:100F600084F83C00304670BD022070BD206800F05F
:100F70008BF92068816941F00801816120688169ED
:100F800021F004018161206881692A69114311E01F
:100F9000206800F0A1F92068816941F40061816155
:100FA0002068816921F480618161206881692A69F2
:100FB00041EA02218161D2E7206800F0B9F9206896
:100FC000C16941F00801C1612068C16921F00401D3
:100FD000C1612068C1692A69114311E0206800F0ED
:100FE000D3F92068C16941F40061C1612068C16919
:100FF00021F48061C1612068C1692A6941EA022146
:10100000C161ACE710B5040003D094F83D0010B105
:1010100007E0012010BD002084F83C00204600F0CD
:101020001FF8022084F83D00211D206800F0F0F830
:10103000012084F8460084F83E0084F83F0084F8DC
:10104000400084F8410084F8420084F8430084F8AA
:10105000440084F8450084F83D00002010BD0000E5
:1010600008B500680649884208D10648816941F4FC
:1010700000618161806900F40060009008BD00009B
:10108000002C014000100240FEE70000104810B59F
:101090000E4901604821416000214FF08072C0E993
:1010A00002124FF4A02202614FF4C00242610176A5
:1010B00041768176C17601774177FFF7EBF9002819
:1010C00003D0BDE81040FFF7E4B810BD0064004055
:1010D00010000020094808B5816941F020018161B4
:1010E000816901F020010091816941F00401816171
:1010F000806900F00400009008BD0000001002406C
:1011000010B592B000240F941C2108A81094FFF78A
:101110005BF820216846FFF757F821481F49016016
:101120004721C0E9011440F2CF71C0E903148021C6
:10113000C0E90541FFF766FF08B1FFF7AAF80F9471
:101140000FA917481094FFF79DFE08B1FFF7A1F80B
:101150006020CDE908040A940B940C940D940022AD
:1011600008A90F480E94FFF7E7FE08B1FFF791F8C2
:1011700000944FF40050CDE904400294019403948C
:10118000694607480794FFF753FE08B1FFF781F857
:101190000348FFF7ABFE12B010BD0000002C014069
:1011A00038000020FEE7FEE770477047FFF748BBB6
:1011B00030B58FB028216846FFF706F814210AA839
:1011C000FFF702F801210804CDE900100024029481
:1011D00002250491CDE907504FF4E01009906846CC
:1011E000FFF782FC08B172B6FEE70F20CDE90A05D1
:1011F0004FF48060CDE90C4002210AA80E94FFF75D
:10120000B7FB002801D072B6FEE70FB030BD7047C3
:10121000F0B50268194B1A4C1A4D4FF080479842AE
:1012200005D0B84203D0A04201D0A84203D122F099
:1012300070064A683243984205D0B84203D0A042B3
:1012400001D0A84203D122F44074CA6822434C69F9
:1012500022F08002224302608A68C2620A688262C7
:10126000984201D109690163012141610169C907FE
:1012700003D0016921F001010161F0BD002C0140A2
:10128000000400400008004030B5036A026A22F002
:10129000010202624268846924F073050C682C43E1
:1012A00023F002058B682B430A4DA8420BD123F093
:1012B0000805CB6822F440722B434D6923F00403E8
:1012C00015438A692A434260846149684163036225
:1012D00030BD0000002C014030B5026A036A23F0E3
:1012E00010030362436884690D6824F4E64444EA09
:1012F00005248D6822F0200242EA05120B4DA84217
:101300000ED1CD6822F0800242EA05124D6923F425
:10131000406343EA85038D6922F0400243EA850376
:101320004360846149688163026230BD002C0140E2
:1013300030B5036A026A22F4807202624268C469AC
:1013400023F4007324F073050C682C438D6843EA82
:1013500005230C4DA8420ED1CD6823F4006343EA67
:1013600005234D6922F4405242EA05128D6923F4A7
:10137000806342EA05124260C4614968C163036246
:1013800030BD0000002C014030B5046A026A22F42E
:10139000805202624268C3690D6823F4E64343EA5F
:1013A00005238D6824F4005444EA0534064DA84210
:1013B00004D14D6922F4804242EA85124260C36141
:1013C00049680164046230BD002C01400148FEF709
:1013D00063BF0000100000200148FEF75DBF000061
:1013E00010000020FEE70907090E002804DB00F1C9
:1013F000E02080F80014704700F00F0000F1E020BA
:1014000080F8141D7047FFF723FAFFF7D1FEFFF7AE
:1014100061FEFFF775FEFFF739FEFEE701020203EA
:101420000405060708090A0B0C0D0E0F101000002A
:101430000000000000000102030406070809000084
:1014400060140008000000201000000028010008BF
:101450007014000810000020D006000044010008AD
:1014600001000000100000000000000000127A00DF
:04000005080000ED02
:00000001FF
