:020000040800F2
:100000007004002005010008170D00084D0C0008C1
:10001000150D000895020008870F00080000000079
:10002000000000000000000000000000A70D000814
:10003000BD02000800000000A50D0008A90D000881
:100040001F0100081F0100081F0100081F01000810
:100050001F0100081F0100081F0100081F01000800
:100060001F0100081F0100081F0100081F010008F0
:100070001F0100081F0100081F0100081F010008E0
:100080001F0100081F0100081F0100081F010008D0
:100090001F0100081F0100081F0100081F010008C0
:1000A0001F0100081F0100081F0100081F010008B0
:1000B0001F0100081F0100081F0100081F010008A0
:1000C0001F0100081F0100081F0100081F01000890
:1000D0001F0100081F0100081F0100081F01000880
:1000E0001F0100081F0100081F010008DFF810D0E1
:1000F00000F06EF80048004781140008AFF300805C
:10010000700400200648804706480047FEE7FEE7E7
:10011000FEE7FEE7FEE7FEE7FEE7FEE7FEE7FEE7B7
:100120000B0E0008ED000008202A04DB203A21FA1B
:1001300002F00021704721FA02F3D040C2F1200200
:100140009140084319467047D2B201E000F8012BF4
:10015000491EFBD270470022F6E710B513460A4647
:1001600004461946FFF7F0FF204610BD2DE9F05F69
:100170000546002092469B46884606468146402416
:100180001BE02846414647462246FFF7CDFF53462F
:100190005A46C01A914110D311461846224600F023
:1001A00029F82D1A67EB01084F462246012000214D
:1001B00000F020F817EB00094E41201EA4F10104C5
:1001C000DFDC484631462A464346BDE8F09F000042
:1001D000064C074D06E0E06840F0010394E8070094
:1001E00098471034AC42F6D3FFF784FF3815000867
:1001F00058150008202A04DB203A00FA02F10020FA
:1002000070479140C2F1200320FA03F31943904054
:100210007047000010B500F03FF80122BDE8104023
:100220009103014800F043B9000C01402DE9F0476B
:10023000DFF8549005464FF4804800224146484676
:1002400000F035F9114F124C0026B85D00F064FD46
:10025000A055761CF6B2092EF7D301224146484636
:1002600000F025F960782870E078C0436870207944
:10027000C043A8706079E870A0792871E07968714E
:10028000207AA871BDE8F087000C01400415000831
:100290001C000020FEE700000648016841F0807164
:1002A0000160054800214160016841F001010160E1
:1002B00070470000FCED00E0001000E0704772B6EF
:1002C000FEE700002DE9F84FDFF8B8910024A9F10E
:1002D000040B23460F2709F1040AABF1040EC9E011
:1002E0000125A5402A40AA427DD1674ED1F804C01D
:1002F000ACEB0608B44532D014DCBCF1030F3AD0A5
:1003000009DCBCF1000F2AD0BCF1010F1CD0BCF1FC
:10031000020F31D11DE0BCF1110F17D0BCF1120F4B
:100320002AD119E0B8F5881F19D006DCB8F5803F4E
:1003300015D0B8F5801F1FD111E0B8F5001F0ED001
:10034000B8F5041F18D10AE0CB6815E0CB681B1D77
:1003500012E0CB6808330FE0CB680C330CE08B68FD
:100360002BB1012B4FF0080303D0456104E00423B7
:1003700002E0056100E00023FF2A01D8064601E003
:1003800000F104064FEA840501D9A5F12005D6F84D
:10039000008007FA05FC28EA0C0803FA05F548EA8C
:1003A0000508C6F800804D68ED0062D5374DAE698E
:1003B00046F00106AE61AD6924F0030605F00105C3
:1003C0000095334D06EB050CDCF80850A607360FF8
:1003D00007FA06F825EA0805DFF8B880404503D19A
:1003E0004FF0000817E044E0DFF8AC80404502D150
:1003F0004FF001080FE0DFF8A480404502D14FF034
:10040000020808E0DFF89880404502D14FF0030869
:1004100001E04FF0040808FA06F848EA0508CCF8AD
:1004200008804D68D9F80060ED024D4601D51643AD
:1004300000E096432E604D68DAF80060AD02554644
:1004400001D5164300E096432E604D68DBF800604E
:10045000AD035D4601D5164300E096432E604D681E
:10046000DEF80060ED03754601D5164300E09643C3
:100470002E60641C0D682A46E5407FF431AFBDE86C
:10048000F88F000008040140000011100010024025
:100490000000014000080140000C01400010014034
:1004A000001401408068084000D0012070470AB164
:1004B000016170470904FBE701488068704700004C
:1004C000080000200248816802781144816070476A
:1004D00008000020074810B5016841F010010160D4
:1004E000032000F067F80F2000F006F800F024F871
:1004F000002010BD0020024070B50D4D04464FF4A1
:100500007A712878B1FBF0F00A490968B1FBF0F084
:1005100000F0CEFA48B9102C07D200222146501E16
:1005200000F028F800206C6070BD012070BD000054
:1005300008000020140000200C4808B5816941F033
:1005400001018161816901F001010091C16941F0FE
:100550008051C161C06900F080500090044841683A
:1005600021F0E06141F00071416008BD00100240DF
:1005700000000140F0B40E4B1B680C46C3F302238D
:10058000C3F10705042D00D90425191D072901D23F
:10059000002300E0DB1E012606FA05F1491E21407A
:1005A00099409E40761E16403143F0BC00F0FCBCE2
:1005B0000CED00E0064900F0070208684FF6FF0363
:1005C000184040EA0220034A1043086070470000C8
:1005D0000CED00E00000FA052DE9F0470F4605009C
:1005E00061D0434E306800F00700B84209D230684D
:1005F00020F0070038433060306800F00700B84250
:1006000051D128683B4C810712D5400703D560685B
:1006100040F4E06060602878000703D5606840F42B
:10062000605060606068A96820F0F0000843606076
:100630002878C00728D06868012810D021680228CF
:1006400010D0890700292EDA616821F003010143E7
:100650006160FFF731FF804641F288390DE0216883
:100660008903EFE78901EDE7FFF726FFA0EB08011B
:10067000494502D90320BDE8F0876068696800F049
:100680000C00B0EB810FEFD1306800F00700B842EA
:100690000BD9306820F0070038433060306800F034
:1006A0000700B84201D00120E5E72878400705D5CA
:1006B0006068E96820F4E06008436060287800071B
:1006C00006D56068296920F4605040EAC100606086
:1006D00000F038F86168084AC1F30311515CC84062
:1006E0000649086006480068FFF706FF0020C2E7D9
:1006F00000200240001002401F15000814000020D6
:100700000C0000200448054900684968044AC1F308
:100710000221515CC84070471400002000100240C4
:100720002F1500080448054900684968044AC1F3C8
:10073000C221515CC84070471400002000100240E4
:100740002F1500080E4A51680E4801F00C03042BC7
:1007500011D0082B0FD10C48C1F38343C903C05CEF
:100760000AD55168084AC1F34041921E515C054ABE
:100770005043B0FBF1F07047044948437047000014
:100780000010024000127A000F15000800093D0019
:100790002DE9F84F040070D02078C04DC00749D033
:1007A0006868C0F38100012807D06868C0F3810041
:1007B000022809D16868C00306D52868800339D5A6
:1007C00060680028E7D035E06068B0F5803F0BD066
:1007D00010B1B0F5A02F11D0286820F48030286027
:1007E000286820F4802002E0286840F480302860E7
:1007F000606890B1FFF760FE06460AE0286840F4A2
:1008000080202860F0E700BFFFF756FE801B6428B9
:1008100073D828688003F7D50CE0FFF74DFE064635
:1008200005E000BFFFF748FE801B6428F0D8286869
:100830008003F7D420789A4E80074FF001094FF0DB
:10084000000839D5686810F00C0F07D06868C0F34D
:100850008100022809D16868C00306D4286880078F
:1008600014D52069012808D110E02069B0B1C6F87C
:100870000090FFF721FE074605E00AE1FFF71CFEA6
:10088000C01B0228C4D828688007F7D5286861698A
:1008900020F0F80040EAC10028600DE0C6F80080B2
:1008A000FFF70AFE074604E0FFF706FEC01B02281A
:1008B00023D828688007F7D4207800072CD57948FA
:1008C000A169D9B1C0F80090FFF7F6FD074604E032
:1008D000FFF7F2FDC01B02280FD8686A8007F7D522
:1008E00071484FF4FA510068B0FBF1F0009000BF7E
:1008F0000098411E0091FAD20EE080E0C0F800801E
:10090000FFF7DAFD074604E0FFF7D6FDC01B02281B
:1009100075D8686A8007F7D42078400760D5E86901
:100920000027C00008D4E86940F08050E861E86919
:10093000012700F0805000905C480168C90513D47D
:100940000168834641F480710160FFF7B5FD82467E
:1009500006E000BFFFF7B0FDA0EB0A0064284ED808
:10096000DBF80000C005F5D5E06801280AD008B121
:10097000052813D0286A20F001002862286A20F098
:10098000040002E0286A40F001002862E06841F2B9
:10099000883B98B1FFF790FD82460BE0286A40F053
:1009A00004002862EEE700BFFFF786FDA0EB0A0116
:1009B00059455AD8286A8007F6D50CE0FFF77CFD28
:1009C000824605E0FFF778FDA0EB0A0159454CD8B7
:1009D000286A8007F6D41FB1E86920F08050E861EA
:1009E000E06988B36968C1F38101022944D0022813
:1009F000C6F8608004D0FFF75FFD044638E034E0BD
:100A0000FFF75AFD074604E0FFF756FDC01B02281A
:100A10002BD828688001F7D4206AB0F5803F05D133
:100A20006868A16820F4003008436860D4E90801D0
:100A30000843696821F4741108436860C6F860903F
:100A4000FFF73AFD044606E025E000BFFFF734FD5E
:100A5000001B022809D828688001F7D51BE000BFD9
:100A6000FFF72AFD001B022802D90320BDE8F88FFA
:100A700028688001F4D40EE00128F7D06868226A63
:100A800000F48031914204D1616A00F47010884210
:100A900001D00120EAE70020E8E700000010024052
:100AA00000004242800442421400002000700040D6
:100AB00010B5401EB0F1807F01D3012010BD4FF072
:100AC000E02460610F21601700F06EFA0020A06141
:100AD00007202061002010BD70B5040004D094F8F8
:100AE0004100002510B106E0012070BD84F840509F
:100AF000204600F023F8242084F841002068C168D3
:100B000021F40051C160204600F0A8F92068016975
:100B100021F4904101612068416921F02A0141617D
:100B20002068C16841F40051C1606564202084F8E8
:100B3000410084F842006563002070BD30B585B087
:100B4000002400940194029403940068144988429C
:100B500024D11448816941F480418161816901F4A3
:100B600080410491816941F00401816180690E4DE9
:100B700000F0040004904FF40070009002200190F7
:100B80000320039069462846FFF79CFB2815CDE912
:100B90000004694628460294FFF794FB05B030BD77
:100BA0000038014000100240000801402DE9F843E0
:100BB000044690F84100984616460D46202802D07B
:100BC0000220BDE8F88385B17EB100206064212059
:100BD00084F84100FFF770FCA6848146E684A06893
:100BE0002027B0F5805F02D003E00120E9E720690B
:100BF00010B12E4600250EE000260CE08021204694
:100C000000F088F9A8B9C6B116F8010B2168486050
:100C1000E08C401EE084E08C4B464FF00002CDF8A3
:100C200000800028EAD14FF04001204600F072F920
:100C300040B184F841700320C3E735F8020BC0F3DC
:100C40000800E3E784F841700020BAE7FEE70000FF
:100C500070B586B000241F48009401940294039458
:100C6000816941F020018161816901F020010491D5
:100C7000816941F008018161816901F008010491F5
:100C8000816941F0040181618069134E00F0040024
:100C9000049001224FF4C0413046FFF708FC0022C7
:100CA0004FF400413046FFF702FCB01401258DE8F7
:100CB000310069463046FFF705FB4FF46040CDE94F
:100CC00000050320CDE9024069463046FFF7FAFAF5
:100CD00006B070BD00100240000C01400C4810B579
:100CE0000A4901604FF4E1314160002181600C222A
:100CF000C160C0E904128161C161FFF7EDFE002807
:100D000003D0BDE81040FFF7DABA10BD003801404B
:100D100028000020FEE7FEE72DE9FC410646002002
:100D20008DF8040001208DF8000047031C4CC5031A
:100D30004FF480582CE000BF9DF80000304201D0F5
:100D4000012200E0002239462046FFF7B0FB0022D6
:100D500029462046FFF7ABFB102000F071FB41460F
:100D60002046FFF79FFB30B19DF804009DF800106E
:100D700008438DF80400012229462046FFF797FB1F
:100D8000102000F05DFB9DF8000040008DF8000091
:100D90009DF800000028CFD19DF80400BDE8FC813B
:100DA000000C014070477047FFF78CBB30B58FB027
:100DB00028216846FFF7CFF914210AA8FFF7CBF9DD
:100DC00001210804CDE900100024029402250491B9
:100DD000CDE907504FF4E01009906846FFF7D8FCC2
:100DE00008B172B6FEE70F20CDE90A054FF4806026
:100DF000CDE90C4002210AA80E94FFF7EDFB002874
:100E000001D072B6FEE70FB030BD704701680C31FB
:100E100051E8002F22F4907241E80023002BF5D115
:100E20000168143151E8002F22F0010241E800234B
:100E3000002BF5D1016B012909D101680C3151E872
:100E4000002F22F0100241E80023002BF5D12021D1
:100E500080F84210002101637047000070B504461D
:100E600000680169E26821F4405111430161216980
:100E7000A0680843616908432168CA6841F20C63AD
:100E80009A430243CA6020684169A26921F4407113
:100E9000114341611E492068884202D1FFF742FC9C
:100EA00001E0FFF72FFC00EBC00101EB00126068CE
:100EB00064218000B2FBF0F3B3FBF1F36FF018068E
:100EC0007343B2FBF0F5B2FBF0F605EB830532237A
:100ED00003EB0515B5FBF1F5B6FBF1F605F0F005F2
:100EE00005EB0615B2FBF0F6B2FBF0F0B0FBF1F04B
:100EF0006FF01802504306EB800003EB0010B0FBCC
:100F0000F1F0216800F00F002844886070BD0000F7
:100F1000003801402DE9F843984617460D4604462F
:100F2000089E24E0701C22D0FFF7C6FAA0EB080050
:100F3000B0421AD8CEB12068C168490717D5802DB4
:100F400015D0402D13D00168C94309070FD401689B
:100F50000025406800902046FFF758FF0820606495
:100F600084F840500120BDE8F8830320FBE72068A7
:100F7000006835EA000004D00020B842D2D000203A
:100F8000F1E70120F9E7FEE70FB4054B10B503A91F
:100F9000044A029800F028F810BC5DF814FB000029
:100FA00069140008180000200907090E002804DB56
:100FB00000F1E02080F80014704700F00F0000F10D
:100FC000E02080F8141D704702E008C8121F08C115
:100FD000002AFAD170477047002001E001C1121FBA
:100FE000002AFBD1704700002DE9FF4F8DB00F465E
:100FF0000546002606E025280BD0DDE90F129047B4
:101000006D1C761C28780028F5D111B03046BDE85B
:10101000F08F0024A246A1460122E94900E00443E2
:1010200015F8013F203B02FA03F00842F7D1287877
:101030002A2810D06FF02F022878A0F1300109295A
:1010400014D80AEB8A0102EB410144F0020400EBE0
:10105000010A6D1CF0E701CF5FEA000A03D544F4F2
:101060000054CAF1000A44F002046D1C28782E28AE
:1010700017D115F8010F44F004042A280ED06FF0A0
:101080002F022878A0F1300109290AD809EB89013B
:1010900002EB410100EB01096D1CF2E757F8049BDC
:1010A0006D1C28786C280FD006DC4C2817D06828D7
:1010B0000DD06A2814D104E0742810D07A280FD1FA
:1010C0000DE044F400140AE044F4801401E044F418
:1010D00040146978814202D104F580146D1C6D1CA6
:1010E00028786E281ED00CDC632830D004DC002861
:1010F0008BD0582811D19FE0642867D069280CD183
:1011000064E073282DD004DC6F2872D0702804D1DD
:1011100094E075286ED078286DD0DDE90F129047E5
:10112000761C4BE1C4F30250022806D0032809D0F4
:10113000042801CF09D0066040E101CFF117C0E9D2
:1011400000613BE101CF068038E1067036E117F817
:10115000040B8DF8000000208DF80100EB46012003
:1011600003E057F804BB4FF0FF3061074FF0000178
:1011700002D40DE008F10101884649450FDA8045A7
:10118000F8DB1BF808100029F4D108E008F1010190
:1011900088468142FADB1BF808100029F6D1DDE908
:1011A0000F23AAEB08008146214600F031F93044B4
:1011B00000EB080604E0DDE90F121BF8010B904775
:1011C000B8F10108F7D221464846F2E00A21C4F3FB
:1011D00002524FF0000B0891022A04D001CFC11730
:1011E000032A09D00AE0FF1D27F00707F7E80201EC
:1011F00008E02CE01EE01FE000B2C117042A01D174
:1012000040B2C117021E71F1000206DA0023D0EBD2
:10121000030063EB01012D2202E0220504D52B22FD
:101220008DF82420012203E0E20701D02022F7E715
:10123000904653E00A210BE0102109E010214FF005
:10124000000B44F004044FF00809089103E0082162
:101250004FF0000B0891C4F30252022A04D001CFD0
:101260000021032A06D006E0FF1D27F00707F7E854
:10127000020103E080B2042A00D1C0B24FF000089E
:1012800022072BD52A78702A07D0DDF820C08CF0F1
:10129000100C5CEA0B0C05D00EE040228DF82420E7
:1012A000012208E050EA010306D030238DF82430F3
:1012B0008DF8252002229046089B83F0080353EA0C
:1012C0000B030BD150EA010201D1620706D530228F
:1012D0008DF824204FF00108A9F101092A78582A35
:1012E00004D038A20B9208AA0A920BE03AA2F9E7BE
:1012F0005B46089AFEF73AFF0B9B9B5C0A9A521ECC
:101300000A92137050EA0102F2D10A98ADEB000084
:1013100000F1200B600702D524F4803401E04FF087
:101320000109D94502DDA9EB0B0000E0002000EB2C
:101330000B0141440890AAEB010AE00306D4DDE961
:101340000F232146504600F063F806444FF0000991
:1013500008E009A911F80900DDE90F12904709F129
:101360000109761CC145F4DBE0030CD5DDE90F2350
:101370002146504600F04CF8064404E0DDE90F1227
:1013800030209047761C0899481E08900029F5DC0B
:1013900008E00A980A990078491C0A91DDE90F12C1
:1013A0009047761CBBF10001ABF1010BF1DC21464B
:1013B0005046DDE90F2300F019F806446D1C21E6C4
:1013C000092801003031323334353637383961621B
:1013D00063646566000000003031323334353637DF
:1013E0003839414243444546000000002DE9F041B0
:1013F000044600251E461746880404D405E03946F5
:101400002020B0476D1C641EF9D52846BDE8F08148
:101410002DE9F041044600251E469046C80301D53B
:10142000302700E02027880404D505E041463846EF
:10143000B0476D1C641EF9D52846BDE8F081000058
:101440000649074A0968B1FBF2F141430548426881
:1014500043689B1A8B42FBD37047000014000020A6
:1014600040420F00001000E013B54FF6FF73012259
:1014700069460248FFF79AFB00981CBD280000202F
:101480001FB5FFF727F8FFF791FCFFF7E1FBFFF728
:1014900025FCFEF7BFFE0A4C0948FEF7C7FEE078C0
:1014A000A379627921798DE80F00A3786278217899
:1014B00004A0FFF769FD0920FFF7C2FFECE7000079
:1014C000000000204D6F64653A3078253032582096
:1014D00042544E313A3078253032582042544E3200
:1014E0003A30782530325820524A282533642C254A
:1014F000336429204C4A282533642C253364290D74
:101500000A00000001420000000000000001020289
:10151000030405060708090A0B0C0D0E0F10100036
:101520000000000000000001020304060708090093
:10153000000000010203040058150008000000200C
:101540001C000000C80F0008741500081C000020D3
:1015500054040000D80F0008000000000000000044
:1015600001000000100000000000000000127A00DE
:041570000000000077
:04000005080000ED02
:00000001FF
